{
  "_format": "hh-sol-artifact-1",
  "contractName": "DerivativeToken",
  "sourceName": "contracts/token/DerivativeToken.sol",
  "abi": [
    {
      "anonymous": false,
      "inputs": [
        {
          "indexed": true,
          "internalType": "address",
          "name": "owner",
          "type": "address"
        },
        {
          "indexed": true,
          "internalType": "address",
          "name": "approved",
          "type": "address"
        },
        {
          "indexed": true,
          "internalType": "uint256",
          "name": "tokenId",
          "type": "uint256"
        }
      ],
      "name": "Approval",
      "type": "event"
    },
    {
      "anonymous": false,
      "inputs": [
        {
          "indexed": true,
          "internalType": "address",
          "name": "owner",
          "type": "address"
        },
        {
          "indexed": true,
          "internalType": "address",
          "name": "operator",
          "type": "address"
        },
        {
          "indexed": false,
          "internalType": "bool",
          "name": "approved",
          "type": "bool"
        }
      ],
      "name": "ApprovalForAll",
      "type": "event"
    },
    {
      "anonymous": false,
      "inputs": [
        {
          "indexed": true,
          "internalType": "uint256",
          "name": "tokenId",
          "type": "uint256"
        },
        {
          "indexed": true,
          "internalType": "address",
          "name": "previousAuthor",
          "type": "address"
        },
        {
          "indexed": true,
          "internalType": "address",
          "name": "newAuthor",
          "type": "address"
        }
      ],
      "name": "AuthorChanged",
      "type": "event"
    },
    {
      "anonymous": false,
      "inputs": [
        {
          "indexed": true,
          "internalType": "uint256",
          "name": "tokenId",
          "type": "uint256"
        },
        {
          "components": [
            {
              "internalType": "address",
              "name": "collection",
              "type": "address"
            },
            {
              "internalType": "uint256",
              "name": "id",
              "type": "uint256"
            }
          ],
          "indexed": false,
          "internalType": "struct LibToken.Token[]",
          "name": "derivativeOptions",
          "type": "tuple[]"
        }
      ],
      "name": "DerivativeOptionsAdded",
      "type": "event"
    },
    {
      "anonymous": false,
      "inputs": [
        {
          "indexed": false,
          "internalType": "uint8",
          "name": "version",
          "type": "uint8"
        }
      ],
      "name": "Initialized",
      "type": "event"
    },
    {
      "anonymous": false,
      "inputs": [
        {
          "indexed": true,
          "internalType": "address",
          "name": "previousOwner",
          "type": "address"
        },
        {
          "indexed": true,
          "internalType": "address",
          "name": "newOwner",
          "type": "address"
        }
      ],
      "name": "OwnershipTransferred",
      "type": "event"
    },
    {
      "anonymous": false,
      "inputs": [
        {
          "indexed": true,
          "internalType": "uint256",
          "name": "tokenId",
          "type": "uint256"
        },
        {
          "components": [
            {
              "internalType": "address",
              "name": "collection",
              "type": "address"
            },
            {
              "internalType": "uint256",
              "name": "id",
              "type": "uint256"
            }
          ],
          "indexed": false,
          "internalType": "struct LibToken.Token[]",
          "name": "previousParentTokens",
          "type": "tuple[]"
        },
        {
          "components": [
            {
              "internalType": "address",
              "name": "collection",
              "type": "address"
            },
            {
              "internalType": "uint256",
              "name": "id",
              "type": "uint256"
            }
          ],
          "indexed": false,
          "internalType": "struct LibToken.Token[]",
          "name": "newParentTokens",
          "type": "tuple[]"
        }
      ],
      "name": "ParentTokensChanged",
      "type": "event"
    },
    {
      "anonymous": false,
      "inputs": [
        {
          "indexed": true,
          "internalType": "address",
          "name": "previousRegistry",
          "type": "address"
        },
        {
          "indexed": true,
          "internalType": "address",
          "name": "newRegistry",
          "type": "address"
        }
      ],
      "name": "RegistryUpgraded",
      "type": "event"
    },
    {
      "anonymous": false,
      "inputs": [
        {
          "indexed": true,
          "internalType": "bytes32",
          "name": "role",
          "type": "bytes32"
        },
        {
          "indexed": true,
          "internalType": "bytes32",
          "name": "previousAdminRole",
          "type": "bytes32"
        },
        {
          "indexed": true,
          "internalType": "bytes32",
          "name": "newAdminRole",
          "type": "bytes32"
        }
      ],
      "name": "RoleAdminChanged",
      "type": "event"
    },
    {
      "anonymous": false,
      "inputs": [
        {
          "indexed": true,
          "internalType": "bytes32",
          "name": "role",
          "type": "bytes32"
        },
        {
          "indexed": true,
          "internalType": "address",
          "name": "account",
          "type": "address"
        },
        {
          "indexed": true,
          "internalType": "address",
          "name": "sender",
          "type": "address"
        }
      ],
      "name": "RoleGranted",
      "type": "event"
    },
    {
      "anonymous": false,
      "inputs": [
        {
          "indexed": true,
          "internalType": "bytes32",
          "name": "role",
          "type": "bytes32"
        },
        {
          "indexed": true,
          "internalType": "address",
          "name": "account",
          "type": "address"
        },
        {
          "indexed": true,
          "internalType": "address",
          "name": "sender",
          "type": "address"
        }
      ],
      "name": "RoleRevoked",
      "type": "event"
    },
    {
      "anonymous": false,
      "inputs": [
        {
          "indexed": true,
          "internalType": "address",
          "name": "from",
          "type": "address"
        },
        {
          "indexed": true,
          "internalType": "address",
          "name": "to",
          "type": "address"
        },
        {
          "indexed": true,
          "internalType": "uint256",
          "name": "tokenId",
          "type": "uint256"
        }
      ],
      "name": "Transfer",
      "type": "event"
    },
    {
      "anonymous": false,
      "inputs": [
        {
          "indexed": true,
          "internalType": "uint256",
          "name": "tokenId",
          "type": "uint256"
        },
        {
          "components": [
            {
              "internalType": "address",
              "name": "collection",
              "type": "address"
            },
            {
              "internalType": "uint256",
              "name": "id",
              "type": "uint256"
            }
          ],
          "indexed": false,
          "internalType": "struct LibToken.Token[]",
          "name": "utilityOptions",
          "type": "tuple[]"
        }
      ],
      "name": "UtilityOptionsAdded",
      "type": "event"
    },
    {
      "inputs": [],
      "name": "ALLOW_TRANSFER_KEY",
      "outputs": [
        {
          "internalType": "bytes32",
          "name": "",
          "type": "bytes32"
        }
      ],
      "stateMutability": "view",
      "type": "function"
    },
    {
      "inputs": [],
      "name": "DEFAULT_ADMIN_ROLE",
      "outputs": [
        {
          "internalType": "bytes32",
          "name": "",
          "type": "bytes32"
        }
      ],
      "stateMutability": "view",
      "type": "function"
    },
    {
      "inputs": [],
      "name": "DRAG_ALONG_KEY",
      "outputs": [
        {
          "internalType": "bytes32",
          "name": "",
          "type": "bytes32"
        }
      ],
      "stateMutability": "view",
      "type": "function"
    },
    {
      "inputs": [],
      "name": "LICENSEES_KEY",
      "outputs": [
        {
          "internalType": "bytes32",
          "name": "",
          "type": "bytes32"
        }
      ],
      "stateMutability": "view",
      "type": "function"
    },
    {
      "inputs": [],
      "name": "ROYALTIES_KEY",
      "outputs": [
        {
          "internalType": "bytes32",
          "name": "",
          "type": "bytes32"
        }
      ],
      "stateMutability": "view",
      "type": "function"
    },
    {
      "inputs": [],
      "name": "ROYALTY_FRACTION_KEY",
      "outputs": [
        {
          "internalType": "bytes32",
          "name": "",
          "type": "bytes32"
        }
      ],
      "stateMutability": "view",
      "type": "function"
    },
    {
      "inputs": [
        {
          "internalType": "uint256",
          "name": "tokenId",
          "type": "uint256"
        },
        {
          "components": [
            {
              "internalType": "address",
              "name": "collection",
              "type": "address"
            },
            {
              "internalType": "uint256",
              "name": "id",
              "type": "uint256"
            }
          ],
          "internalType": "struct LibToken.Token[]",
          "name": "derivativeOptions",
          "type": "tuple[]"
        }
      ],
      "name": "addDerivativeOption",
      "outputs": [],
      "stateMutability": "nonpayable",
      "type": "function"
    },
    {
      "inputs": [
        {
          "internalType": "uint256",
          "name": "tokenId",
          "type": "uint256"
        },
        {
          "components": [
            {
              "internalType": "address",
              "name": "collection",
              "type": "address"
            },
            {
              "internalType": "uint256",
              "name": "id",
              "type": "uint256"
            }
          ],
          "internalType": "struct LibToken.Token[]",
          "name": "utilityOptions",
          "type": "tuple[]"
        }
      ],
      "name": "addUtilityOption",
      "outputs": [],
      "stateMutability": "nonpayable",
      "type": "function"
    },
    {
      "inputs": [
        {
          "internalType": "uint256",
          "name": "tokenId",
          "type": "uint256"
        }
      ],
      "name": "allowToTransfer",
      "outputs": [
        {
          "internalType": "bool",
          "name": "",
          "type": "bool"
        }
      ],
      "stateMutability": "view",
      "type": "function"
    },
    {
      "inputs": [
        {
          "internalType": "uint256",
          "name": "tokenId",
          "type": "uint256"
        }
      ],
      "name": "allowTransferring",
      "outputs": [
        {
          "internalType": "bool",
          "name": "",
          "type": "bool"
        }
      ],
      "stateMutability": "view",
      "type": "function"
    },
    {
      "inputs": [
        {
          "internalType": "address",
          "name": "to",
          "type": "address"
        },
        {
          "internalType": "uint256",
          "name": "tokenId",
          "type": "uint256"
        }
      ],
      "name": "approve",
      "outputs": [],
      "stateMutability": "nonpayable",
      "type": "function"
    },
    {
      "inputs": [
        {
          "internalType": "uint256",
          "name": "tokenId",
          "type": "uint256"
        }
      ],
      "name": "authorOf",
      "outputs": [
        {
          "internalType": "address",
          "name": "",
          "type": "address"
        }
      ],
      "stateMutability": "view",
      "type": "function"
    },
    {
      "inputs": [
        {
          "internalType": "uint256",
          "name": "tokenId",
          "type": "uint256"
        },
        {
          "internalType": "bytes32",
          "name": "key",
          "type": "bytes32"
        }
      ],
      "name": "authorSettings",
      "outputs": [
        {
          "internalType": "uint256[]",
          "name": "",
          "type": "uint256[]"
        }
      ],
      "stateMutability": "view",
      "type": "function"
    },
    {
      "inputs": [
        {
          "internalType": "address",
          "name": "owner",
          "type": "address"
        }
      ],
      "name": "balanceOf",
      "outputs": [
        {
          "internalType": "uint256",
          "name": "",
          "type": "uint256"
        }
      ],
      "stateMutability": "view",
      "type": "function"
    },
    {
      "inputs": [
        {
          "internalType": "bytes32",
          "name": "key",
          "type": "bytes32"
        }
      ],
      "name": "collectionSettings",
      "outputs": [
        {
          "internalType": "uint256[]",
          "name": "",
          "type": "uint256[]"
        }
      ],
      "stateMutability": "view",
      "type": "function"
    },
    {
      "inputs": [
        {
          "internalType": "uint256",
          "name": "tokenId",
          "type": "uint256"
        }
      ],
      "name": "derivativeOptionsOf",
      "outputs": [
        {
          "components": [
            {
              "internalType": "address",
              "name": "collection",
              "type": "address"
            },
            {
              "internalType": "uint256",
              "name": "id",
              "type": "uint256"
            }
          ],
          "internalType": "struct LibToken.Token[]",
          "name": "",
          "type": "tuple[]"
        }
      ],
      "stateMutability": "view",
      "type": "function"
    },
    {
      "inputs": [
        {
          "internalType": "uint256",
          "name": "tokenId",
          "type": "uint256"
        }
      ],
      "name": "getApproved",
      "outputs": [
        {
          "internalType": "address",
          "name": "",
          "type": "address"
        }
      ],
      "stateMutability": "view",
      "type": "function"
    },
    {
      "inputs": [
        {
          "internalType": "bytes32",
          "name": "role",
          "type": "bytes32"
        }
      ],
      "name": "getRoleAdmin",
      "outputs": [
        {
          "internalType": "bytes32",
          "name": "",
          "type": "bytes32"
        }
      ],
      "stateMutability": "view",
      "type": "function"
    },
    {
      "inputs": [
        {
          "internalType": "bytes32",
          "name": "role",
          "type": "bytes32"
        },
        {
          "internalType": "address",
          "name": "account",
          "type": "address"
        }
      ],
      "name": "grantRole",
      "outputs": [],
      "stateMutability": "nonpayable",
      "type": "function"
    },
    {
      "inputs": [
        {
          "internalType": "bytes32",
          "name": "role",
          "type": "bytes32"
        },
        {
          "internalType": "address",
          "name": "account",
          "type": "address"
        }
      ],
      "name": "hasRole",
      "outputs": [
        {
          "internalType": "bool",
          "name": "",
          "type": "bool"
        }
      ],
      "stateMutability": "view",
      "type": "function"
    },
    {
      "inputs": [
        {
          "internalType": "address",
          "name": "admin",
          "type": "address"
        },
        {
          "internalType": "address",
          "name": "owner",
          "type": "address"
        },
        {
          "internalType": "string",
          "name": "name",
          "type": "string"
        },
        {
          "internalType": "string",
          "name": "symbol",
          "type": "string"
        },
        {
          "internalType": "address",
          "name": "registry",
          "type": "address"
        }
      ],
      "name": "initialize",
      "outputs": [],
      "stateMutability": "nonpayable",
      "type": "function"
    },
    {
      "inputs": [
        {
          "internalType": "address",
          "name": "account",
          "type": "address"
        }
      ],
      "name": "isAdmin",
      "outputs": [
        {
          "internalType": "bool",
          "name": "",
          "type": "bool"
        }
      ],
      "stateMutability": "view",
      "type": "function"
    },
    {
      "inputs": [
        {
          "internalType": "address",
          "name": "owner",
          "type": "address"
        },
        {
          "internalType": "address",
          "name": "operator",
          "type": "address"
        }
      ],
      "name": "isApprovedForAll",
      "outputs": [
        {
          "internalType": "bool",
          "name": "",
          "type": "bool"
        }
      ],
      "stateMutability": "view",
      "type": "function"
    },
    {
      "inputs": [
        {
          "internalType": "uint256",
          "name": "tokenId",
          "type": "uint256"
        },
        {
          "components": [
            {
              "internalType": "address",
              "name": "collection",
              "type": "address"
            },
            {
              "internalType": "uint256",
              "name": "id",
              "type": "uint256"
            }
          ],
          "internalType": "struct LibToken.Token",
          "name": "otherToken",
          "type": "tuple"
        }
      ],
      "name": "isDerivativeOption",
      "outputs": [
        {
          "internalType": "bool",
          "name": "",
          "type": "bool"
        }
      ],
      "stateMutability": "view",
      "type": "function"
    },
    {
      "inputs": [
        {
          "internalType": "uint256",
          "name": "tokenId",
          "type": "uint256"
        }
      ],
      "name": "isDragAlong",
      "outputs": [
        {
          "internalType": "bool",
          "name": "",
          "type": "bool"
        }
      ],
      "stateMutability": "view",
      "type": "function"
    },
    {
      "inputs": [
        {
          "internalType": "uint256",
          "name": "tokenId",
          "type": "uint256"
        },
        {
          "components": [
            {
              "internalType": "address",
              "name": "collection",
              "type": "address"
            },
            {
              "internalType": "uint256",
              "name": "id",
              "type": "uint256"
            }
          ],
          "internalType": "struct LibToken.Token",
          "name": "otherToken",
          "type": "tuple"
        }
      ],
      "name": "isParentToken",
      "outputs": [
        {
          "internalType": "bool",
          "name": "",
          "type": "bool"
        }
      ],
      "stateMutability": "view",
      "type": "function"
    },
    {
      "inputs": [
        {
          "internalType": "uint256",
          "name": "tokenId",
          "type": "uint256"
        },
        {
          "components": [
            {
              "internalType": "address",
              "name": "collection",
              "type": "address"
            },
            {
              "internalType": "uint256",
              "name": "id",
              "type": "uint256"
            }
          ],
          "internalType": "struct LibToken.Token",
          "name": "otherToken",
          "type": "tuple"
        }
      ],
      "name": "isUtilityOption",
      "outputs": [
        {
          "internalType": "bool",
          "name": "",
          "type": "bool"
        }
      ],
      "stateMutability": "view",
      "type": "function"
    },
    {
      "inputs": [
        {
          "internalType": "address",
          "name": "to",
          "type": "address"
        },
        {
          "internalType": "uint256",
          "name": "tokenId",
          "type": "uint256"
        },
        {
          "internalType": "string",
          "name": "uri",
          "type": "string"
        },
        {
          "components": [
            {
              "internalType": "address",
              "name": "collection",
              "type": "address"
            },
            {
              "internalType": "uint256",
              "name": "id",
              "type": "uint256"
            }
          ],
          "internalType": "struct LibToken.Token[]",
          "name": "parentTokens",
          "type": "tuple[]"
        },
        {
          "components": [
            {
              "internalType": "address",
              "name": "collection",
              "type": "address"
            },
            {
              "internalType": "uint256",
              "name": "id",
              "type": "uint256"
            }
          ],
          "internalType": "struct LibToken.Token[]",
          "name": "derivativeOptions",
          "type": "tuple[]"
        }
      ],
      "name": "mint",
      "outputs": [],
      "stateMutability": "nonpayable",
      "type": "function"
    },
    {
      "inputs": [],
      "name": "name",
      "outputs": [
        {
          "internalType": "string",
          "name": "",
          "type": "string"
        }
      ],
      "stateMutability": "view",
      "type": "function"
    },
    {
      "inputs": [],
      "name": "owner",
      "outputs": [
        {
          "internalType": "address",
          "name": "",
          "type": "address"
        }
      ],
      "stateMutability": "view",
      "type": "function"
    },
    {
      "inputs": [
        {
          "internalType": "uint256",
          "name": "tokenId",
          "type": "uint256"
        }
      ],
      "name": "ownerOf",
      "outputs": [
        {
          "internalType": "address",
          "name": "",
          "type": "address"
        }
      ],
      "stateMutability": "view",
      "type": "function"
    },
    {
      "inputs": [
        {
          "internalType": "uint256",
          "name": "tokenId",
          "type": "uint256"
        }
      ],
      "name": "parentTokensOf",
      "outputs": [
        {
          "components": [
            {
              "internalType": "address",
              "name": "collection",
              "type": "address"
            },
            {
              "internalType": "uint256",
              "name": "id",
              "type": "uint256"
            }
          ],
          "internalType": "struct LibToken.Token[]",
          "name": "",
          "type": "tuple[]"
        }
      ],
      "stateMutability": "view",
      "type": "function"
    },
    {
      "inputs": [],
      "name": "registry",
      "outputs": [
        {
          "internalType": "address",
          "name": "",
          "type": "address"
        }
      ],
      "stateMutability": "view",
      "type": "function"
    },
    {
      "inputs": [
        {
          "internalType": "uint256",
          "name": "tokenId",
          "type": "uint256"
        },
        {
          "internalType": "uint256",
          "name": "relation",
          "type": "uint256"
        }
      ],
      "name": "relatedTokens",
      "outputs": [
        {
          "components": [
            {
              "internalType": "address",
              "name": "collection",
              "type": "address"
            },
            {
              "internalType": "uint256",
              "name": "id",
              "type": "uint256"
            }
          ],
          "internalType": "struct LibToken.Token[]",
          "name": "",
          "type": "tuple[]"
        }
      ],
      "stateMutability": "view",
      "type": "function"
    },
    {
      "inputs": [
        {
          "internalType": "uint256",
          "name": "tokenId",
          "type": "uint256"
        },
        {
          "components": [
            {
              "internalType": "address",
              "name": "collection",
              "type": "address"
            },
            {
              "internalType": "uint256",
              "name": "id",
              "type": "uint256"
            }
          ],
          "internalType": "struct LibToken.Token",
          "name": "otherToken",
          "type": "tuple"
        }
      ],
      "name": "relationsWith",
      "outputs": [
        {
          "internalType": "uint256[]",
          "name": "",
          "type": "uint256[]"
        }
      ],
      "stateMutability": "view",
      "type": "function"
    },
    {
      "inputs": [],
      "name": "renounceOwnership",
      "outputs": [],
      "stateMutability": "nonpayable",
      "type": "function"
    },
    {
      "inputs": [
        {
          "internalType": "bytes32",
          "name": "role",
          "type": "bytes32"
        },
        {
          "internalType": "address",
          "name": "account",
          "type": "address"
        }
      ],
      "name": "renounceRole",
      "outputs": [],
      "stateMutability": "nonpayable",
      "type": "function"
    },
    {
      "inputs": [
        {
          "internalType": "bytes32",
          "name": "role",
          "type": "bytes32"
        },
        {
          "internalType": "address",
          "name": "account",
          "type": "address"
        }
      ],
      "name": "revokeRole",
      "outputs": [],
      "stateMutability": "nonpayable",
      "type": "function"
    },
    {
      "inputs": [
        {
          "internalType": "uint256",
          "name": "tokenId",
          "type": "uint256"
        }
      ],
      "name": "royaltiesFrom",
      "outputs": [
        {
          "components": [
            {
              "internalType": "address payable",
              "name": "receiver",
              "type": "address"
            },
            {
              "internalType": "uint256",
              "name": "fraction",
              "type": "uint256"
            }
          ],
          "internalType": "struct LibRoyalty.Royalty[]",
          "name": "royalties",
          "type": "tuple[]"
        }
      ],
      "stateMutability": "view",
      "type": "function"
    },
    {
      "inputs": [
        {
          "internalType": "uint256",
          "name": "tokenId",
          "type": "uint256"
        }
      ],
      "name": "royaltiesOf",
      "outputs": [
        {
          "components": [
            {
              "internalType": "address payable",
              "name": "receiver",
              "type": "address"
            },
            {
              "internalType": "uint256",
              "name": "fraction",
              "type": "uint256"
            }
          ],
          "internalType": "struct LibRoyalty.Royalty[]",
          "name": "royalties",
          "type": "tuple[]"
        }
      ],
      "stateMutability": "view",
      "type": "function"
    },
    {
      "inputs": [],
      "name": "royaltyFractionOfCollection",
      "outputs": [
        {
          "internalType": "uint256",
          "name": "fraction",
          "type": "uint256"
        }
      ],
      "stateMutability": "view",
      "type": "function"
    },
    {
      "inputs": [
        {
          "internalType": "uint256",
          "name": "tokenId",
          "type": "uint256"
        }
      ],
      "name": "royaltyFractionOfToken",
      "outputs": [
        {
          "internalType": "uint256",
          "name": "fraction",
          "type": "uint256"
        }
      ],
      "stateMutability": "view",
      "type": "function"
    },
    {
      "inputs": [
        {
          "internalType": "address",
          "name": "from",
          "type": "address"
        },
        {
          "internalType": "address",
          "name": "to",
          "type": "address"
        },
        {
          "internalType": "uint256",
          "name": "tokenId",
          "type": "uint256"
        }
      ],
      "name": "safeTransferFrom",
      "outputs": [],
      "stateMutability": "nonpayable",
      "type": "function"
    },
    {
      "inputs": [
        {
          "internalType": "address",
          "name": "from",
          "type": "address"
        },
        {
          "internalType": "address",
          "name": "to",
          "type": "address"
        },
        {
          "internalType": "uint256",
          "name": "tokenId",
          "type": "uint256"
        },
        {
          "internalType": "bytes",
          "name": "data",
          "type": "bytes"
        }
      ],
      "name": "safeTransferFrom",
      "outputs": [],
      "stateMutability": "nonpayable",
      "type": "function"
    },
    {
      "inputs": [
        {
          "internalType": "address",
          "name": "account",
          "type": "address"
        },
        {
          "internalType": "bool",
          "name": "granted",
          "type": "bool"
        }
      ],
      "name": "setAdmin",
      "outputs": [],
      "stateMutability": "nonpayable",
      "type": "function"
    },
    {
      "inputs": [
        {
          "internalType": "address",
          "name": "operator",
          "type": "address"
        },
        {
          "internalType": "bool",
          "name": "approved",
          "type": "bool"
        }
      ],
      "name": "setApprovalForAll",
      "outputs": [],
      "stateMutability": "nonpayable",
      "type": "function"
    },
    {
      "inputs": [
        {
          "internalType": "uint256",
          "name": "tokenId",
          "type": "uint256"
        },
        {
          "internalType": "address",
          "name": "author",
          "type": "address"
        }
      ],
      "name": "setAuthor",
      "outputs": [],
      "stateMutability": "nonpayable",
      "type": "function"
    },
    {
      "inputs": [
        {
          "internalType": "uint256",
          "name": "tokenId",
          "type": "uint256"
        },
        {
          "internalType": "bytes32",
          "name": "key",
          "type": "bytes32"
        },
        {
          "internalType": "uint256[]",
          "name": "values",
          "type": "uint256[]"
        }
      ],
      "name": "setAuthorSettings",
      "outputs": [],
      "stateMutability": "nonpayable",
      "type": "function"
    },
    {
      "inputs": [
        {
          "internalType": "bytes32",
          "name": "key",
          "type": "bytes32"
        },
        {
          "internalType": "uint256[]",
          "name": "values",
          "type": "uint256[]"
        }
      ],
      "name": "setCollectionSettings",
      "outputs": [],
      "stateMutability": "nonpayable",
      "type": "function"
    },
    {
      "inputs": [
        {
          "internalType": "uint256",
          "name": "tokenId",
          "type": "uint256"
        },
        {
          "components": [
            {
              "internalType": "address",
              "name": "collection",
              "type": "address"
            },
            {
              "internalType": "uint256",
              "name": "id",
              "type": "uint256"
            }
          ],
          "internalType": "struct LibToken.Token[]",
          "name": "parentTokens",
          "type": "tuple[]"
        },
        {
          "components": [
            {
              "internalType": "address",
              "name": "collection",
              "type": "address"
            },
            {
              "internalType": "uint256",
              "name": "id",
              "type": "uint256"
            }
          ],
          "internalType": "struct LibToken.Token[]",
          "name": "derivativeOptions",
          "type": "tuple[]"
        }
      ],
      "name": "setParentTokens",
      "outputs": [],
      "stateMutability": "nonpayable",
      "type": "function"
    },
    {
      "inputs": [
        {
          "internalType": "uint256",
          "name": "tokenId",
          "type": "uint256"
        },
        {
          "internalType": "bytes32",
          "name": "key",
          "type": "bytes32"
        },
        {
          "internalType": "uint256[]",
          "name": "values",
          "type": "uint256[]"
        }
      ],
      "name": "setTokenSettings",
      "outputs": [],
      "stateMutability": "nonpayable",
      "type": "function"
    },
    {
      "inputs": [
        {
          "internalType": "uint256",
          "name": "tokenId",
          "type": "uint256"
        },
        {
          "internalType": "string",
          "name": "uri",
          "type": "string"
        }
      ],
      "name": "setTokenURI",
      "outputs": [],
      "stateMutability": "nonpayable",
      "type": "function"
    },
    {
      "inputs": [
        {
          "internalType": "bytes4",
          "name": "interfaceId",
          "type": "bytes4"
        }
      ],
      "name": "supportsInterface",
      "outputs": [
        {
          "internalType": "bool",
          "name": "",
          "type": "bool"
        }
      ],
      "stateMutability": "view",
      "type": "function"
    },
    {
      "inputs": [],
      "name": "symbol",
      "outputs": [
        {
          "internalType": "string",
          "name": "",
          "type": "string"
        }
      ],
      "stateMutability": "view",
      "type": "function"
    },
    {
      "inputs": [
        {
          "internalType": "uint256",
          "name": "tokenId",
          "type": "uint256"
        },
        {
          "internalType": "bytes32",
          "name": "key",
          "type": "bytes32"
        }
      ],
      "name": "tokenSettings",
      "outputs": [
        {
          "internalType": "uint256[]",
          "name": "",
          "type": "uint256[]"
        }
      ],
      "stateMutability": "view",
      "type": "function"
    },
    {
      "inputs": [
        {
          "internalType": "uint256",
          "name": "tokenId",
          "type": "uint256"
        }
      ],
      "name": "tokenURI",
      "outputs": [
        {
          "internalType": "string",
          "name": "",
          "type": "string"
        }
      ],
      "stateMutability": "view",
      "type": "function"
    },
    {
      "inputs": [
        {
          "internalType": "address",
          "name": "from",
          "type": "address"
        },
        {
          "internalType": "address",
          "name": "to",
          "type": "address"
        },
        {
          "internalType": "uint256",
          "name": "tokenId",
          "type": "uint256"
        }
      ],
      "name": "transferFrom",
      "outputs": [],
      "stateMutability": "nonpayable",
      "type": "function"
    },
    {
      "inputs": [
        {
          "internalType": "address",
          "name": "newOwner",
          "type": "address"
        }
      ],
      "name": "transferOwnership",
      "outputs": [],
      "stateMutability": "nonpayable",
      "type": "function"
    },
    {
      "inputs": [
        {
          "internalType": "address",
          "name": "newRegistry",
          "type": "address"
        }
      ],
      "name": "upgradeRegistry",
      "outputs": [],
      "stateMutability": "nonpayable",
      "type": "function"
    },
    {
      "inputs": [
        {
          "internalType": "uint256",
          "name": "tokenId",
          "type": "uint256"
        }
      ],
      "name": "utilityOptionsOf",
      "outputs": [
        {
          "components": [
            {
              "internalType": "address",
              "name": "collection",
              "type": "address"
            },
            {
              "internalType": "uint256",
              "name": "id",
              "type": "uint256"
            }
          ],
          "internalType": "struct LibToken.Token[]",
          "name": "",
          "type": "tuple[]"
        }
      ],
      "stateMutability": "view",
      "type": "function"
    },
    {
      "inputs": [],
      "name": "version",
      "outputs": [
        {
          "internalType": "uint256",
          "name": "",
          "type": "uint256"
        }
      ],
      "stateMutability": "pure",
      "type": "function"
    }
  ],
  "bytecode": "0x608060405234801561001057600080fd5b50615f3080620000216000396000f3fe608060405234801561001057600080fd5b50600436106103ae5760003560e01c806378f84ef0116101f4578063b17af15e1161011a578063d02fd24a116100ad578063eb8e56661161007c578063eb8e566614610880578063f2fde38b14610893578063fd91d148146108a6578063fdc3f9ba146108b957600080fd5b8063d02fd24a146107f7578063d547741f1461081e578063df68adf514610831578063e985e9c51461084457600080fd5b8063c87b56dd116100e9578063c87b56dd146107ab578063cc026cad146107be578063ced8d191146107d1578063cf5018a5146107e457600080fd5b8063b17af15e1461075f578063b88d4fde14610772578063c349e28914610785578063c66bd7161461079857600080fd5b80638a54a03f1161019257806395d89b411161016157806395d89b4114610729578063a217fddf14610731578063a22cb46514610739578063acfe97221461074c57600080fd5b80638a54a03f146106cb5780638da5cb5b146106de5780638e9a532a146106ef57806391d148541461071657600080fd5b80637c3e937c116101ce5780637c3e937c1461067d5780637ec4cc89146106925780637f1fd15c146106a557806382ea352c146106b857600080fd5b806378f84ef0146106435780637928eb49146106635780637b1039991461066b57600080fd5b80633c0aa2ed116102d9578063571733ab1161027757806367d11abe1161024657806367d11abe14610602578063695c6ac41461061557806370a0823114610628578063715018a61461063b57600080fd5b8063571733ab146105b65780635f4981ef146105c957806361141834146105dc5780636352211e146105ef57600080fd5b80634e6e9a04116102b35780634e6e9a041461056957806353e244981461058957806354f22f0d1461059c57806354fd4d50146105af57600080fd5b80633c0aa2ed1461052357806342842e0e146105435780634b0bddd21461055657600080fd5b8063209853c5116103515780632f2ff15d116103205780632f2ff15d146104d55780633124d7ba146104e8578063362925c2146104fd57806336568abe1461051057600080fd5b8063209853c51461047957806323b872dd1461048c578063248a9ca31461049f57806324d7806c146104c257600080fd5b8063081812fc1161038d578063081812fc14610405578063095ea7b3146104305780630cf91d6414610443578063162094c41461046657600080fd5b8062e5dc4b146103b357806301ffc9a7146103c857806306fdde03146103f0575b600080fd5b6103c66103c1366004614f0c565b6108cc565b005b6103db6103d6366004614f8e565b61098b565b60405190151581526020015b60405180910390f35b6103f86109b6565b6040516103e79190614ffb565b61041861041336600461500e565b610a48565b6040516001600160a01b0390911681526020016103e7565b6103c661043e366004615027565b610a6f565b610458600080516020615e9b83398151915281565b6040519081526020016103e7565b6103c66104743660046150ca565b610b84565b6103c6610487366004615110565b610bf0565b6103c661049a36600461514c565b610c63565b6104586104ad36600461500e565b60009081526097602052604090206001015490565b6103db6104d036600461518d565b610ceb565b6103c66104e33660046151aa565b610cf7565b610458600080516020615ebb83398151915281565b6103c661050b3660046151da565b610d1c565b6103c661051e3660046151aa565b610e61565b61053661053136600461500e565b610edf565b6040516103e791906152cf565b6103c661055136600461514c565b610f19565b6103c66105643660046152f0565b610f34565b61057c61057736600461500e565b610fbb565b6040516103e7919061531e565b6103c66105973660046153d1565b6110d1565b6103db6105aa36600461540d565b6110e3565b6006610458565b6104186105c436600461500e565b611149565b6103db6105d736600461540d565b61117a565b6105366105ea36600461500e565b6111da565b6104186105fd36600461500e565b61120b565b61057c61061036600461500e565b61126b565b6103db61062336600461500e565b611318565b61045861063636600461518d565b611351565b6103c66113d7565b61065661065136600461500e565b6113eb565b6040516103e7919061543a565b6104586114ad565b6101bd546001600160a01b0316610418565b610458600080516020615e7b83398151915281565b6106566106a036600461547e565b611565565b6103db6106b336600461500e565b611597565b6103c66106c63660046154a0565b6115c8565b6103c66106d93660046154e5565b611675565b6065546001600160a01b0316610418565b6104587f43d118f082ba990d2d54551812185e846ce2ab98321dfe4d7a986fd1a295a15d81565b6103db6107243660046151aa565b611715565b6103f8611740565b610458600081565b6103c66107473660046152f0565b61174f565b61065661075a36600461540d565b61175a565b61045861076d36600461500e565b61194f565b6103c6610780366004615589565b611980565b6103c661079336600461518d565b611a09565b6103db6107a636600461540d565b611a51565b6103f86107b936600461500e565b611ab1565b6103c66107cc3660046154a0565b611abc565b6103db6107df36600461500e565b611b61565b6103c66107f2366004615110565b611b92565b6104587f3b23e4a51f3509cf29f7a9e68c9297bc74af8f28aefc17739fe8f2944b054f1081565b6103c661082c3660046151aa565b611c05565b61065661083f36600461547e565b611c2a565b6103db610852366004615608565b6001600160a01b03918216600090815260ce6020908152604080832093909416825291909152205460ff1690565b6103c661088e3660046151aa565b611c5c565b6103c66108a136600461518d565b611d0a565b6105366108b436600461500e565b611d80565b6105366108c736600461547e565b611db1565b826108d681611e5b565b6108fb5760405162461bcd60e51b81526004016108f290615636565b60405180910390fd5b61090433610ceb565b61093657610910611e78565b81518351146109315760405162461bcd60e51b81526004016108f290615678565b610961565b81511580610945575081518351145b6109615760405162461bcd60e51b81526004016108f2906156ee565b81511561097b5761097b6109748561120b565b8484611ed2565b610985848461228f565b50505050565b60006001600160e01b03198216630a27add360e31b14806109b057506109b082612532565b92915050565b606060c980546109c590615743565b80601f01602080910402602001604051908101604052809291908181526020018280546109f190615743565b8015610a3e5780601f10610a1357610100808354040283529160200191610a3e565b820191906000526020600020905b815481529060010190602001808311610a2157829003601f168201915b5050505050905090565b6000610a5382612572565b50600090815260cd60205260409020546001600160a01b031690565b6000610a7a8261120b565b9050806001600160a01b0316836001600160a01b031603610ae75760405162461bcd60e51b815260206004820152602160248201527f4552433732313a20617070726f76616c20746f2063757272656e74206f776e656044820152603960f91b60648201526084016108f2565b336001600160a01b0382161480610b035750610b038133610852565b610b755760405162461bcd60e51b815260206004820152603d60248201527f4552433732313a20617070726f76652063616c6c6572206973206e6f7420746f60448201527f6b656e206f776e6572206f7220617070726f76656420666f7220616c6c00000060648201526084016108f2565b610b7f83836125c2565b505050565b81610b8e81611e5b565b610baa5760405162461bcd60e51b81526004016108f290615636565b610bb5600033611715565b80610bca57506065546001600160a01b031633145b610be65760405162461bcd60e51b81526004016108f290615777565b610b7f8383612630565b81610bfa81611e5b565b610c165760405162461bcd60e51b81526004016108f290615636565b82610c22600033611715565b80610c3d575033610c328261120b565b6001600160a01b0316145b610c595760405162461bcd60e51b81526004016108f2906157b2565b61098584846126b4565b610c6c33610ceb565b610ce057610c7a3382612947565b610c965760405162461bcd60e51b81526004016108f2906157f3565b610c9e6129c5565b15610cbb5760405162461bcd60e51b81526004016108f290615836565b610cc481611318565b610ce05760405162461bcd60e51b81526004016108f290615886565b610b7f838383612a5b565b60006109b08183611715565b600082815260976020526040902060010154610d1281612bcc565b610b7f8383612bd6565b600054610100900460ff1615808015610d3c5750600054600160ff909116105b80610d565750303b158015610d56575060005460ff166001145b610db95760405162461bcd60e51b815260206004820152602e60248201527f496e697469616c697a61626c653a20636f6e747261637420697320616c72656160448201526d191e481a5b9a5d1a585b1a5e995960921b60648201526084016108f2565b6000805460ff191660011790558015610ddc576000805461ff0019166101001790555b610de4612c5c565b610def600087612bd6565b610df7612c83565b610e0085611d0a565b610e0a8484612cb2565b610e1382612ce3565b8015610e59576000805461ff0019169055604051600181527f7f26b83ff96e1f2b6a682f133852f6798a09c465da95921460cefb38474024989060200160405180910390a15b505050505050565b6001600160a01b0381163314610ed15760405162461bcd60e51b815260206004820152602f60248201527f416363657373436f6e74726f6c3a2063616e206f6e6c792072656e6f756e636560448201526e103937b632b9903337b91039b2b63360891b60648201526084016108f2565b610edb8282612da3565b5050565b606081610eeb81611e5b565b610f075760405162461bcd60e51b81526004016108f290615636565b610f1083612e0a565b91505b50919050565b610b7f83838360405180602001604052806000815250611980565b6001600160a01b038216610f9f5760405162461bcd60e51b815260206004820152602c60248201527f44657269766174697665546f6b656e3a206163636f756e74206973207468652060448201526b7a65726f206164647265737360a01b60648201526084016108f2565b8015610fb057610edb600083610cf7565b610edb600083611c05565b606081610fc781611e5b565b610fe35760405162461bcd60e51b81526004016108f290615636565b6000610fee84612e93565b905080516000036110c05760006110036114ad565b905080600003611014575050610f13565b60408051600180825281830190925290816020015b60408051808201909152600080825260208201528152602001906001900390816110295750506065549094506001600160a01b031684600081518110611071576110716158d8565b6020026020010151600001906001600160a01b031690816001600160a01b03168152505080846000815181106110a9576110a96158d8565b602002602001015160200181815250505050610f13565b6110c981612f07565b949350505050565b6110d9611e78565b610edb82826134f7565b6000826110ef81611e5b565b61110b5760405162461bcd60e51b81526004016108f290615636565b60008481526101f06020908152604080832086516001600160a01b03168452825280832082870151845290915290205460ff165b91505b5092915050565b60008161115581611e5b565b6111715760405162461bcd60e51b81526004016108f290615636565b610f10836135cd565b60008261118681611e5b565b6111a25760405162461bcd60e51b81526004016108f290615636565b60008481526101606020908152604080832086516001600160a01b03168452825280832082870151845290915290205460ff1661113f565b6060816111e681611e5b565b6112025760405162461bcd60e51b81526004016108f290615636565b610f1083612e93565b600081815260cb60205260408120546001600160a01b0316806109b05760405162461bcd60e51b8152602060048201526018602482015277115490cdcc8c4e881a5b9d985b1a59081d1bdad95b88125160421b60448201526064016108f2565b60608161127781611e5b565b6112935760405162461bcd60e51b81526004016108f290615636565b6040805180820182523081526020810185905281516001808252818401909352909160009190816020015b60408051808201909152600080825260208201528152602001906001900390816112be57905050905081816000815181106112fb576112fb6158d8565b602002602001018190525061130f81612f07565b95945050505050565b60008161132481611e5b565b6113405760405162461bcd60e51b81526004016108f290615636565b610f1061134c84612e93565b61364a565b60006001600160a01b0382166113bb5760405162461bcd60e51b815260206004820152602960248201527f4552433732313a2061646472657373207a65726f206973206e6f7420612076616044820152683634b21037bbb732b960b91b60648201526084016108f2565b506001600160a01b0316600090815260cc602052604090205490565b6113df611e78565b6113e960006137c9565b565b606081600080516020615e9b8339815191528114806114175750600080516020615ebb83398151915281145b8061142f5750600080516020615e7b83398151915281145b61144b5760405162461bcd60e51b81526004016108f2906158ee565b60008381526101916020908152604091829020805483518184028101840190945280845290918301828280156114a057602002820191906000526020600020905b81548152602001906001019080831161148c575b5050505050915050919050565b600080516020615e7b833981519152600090815261019160209081527ffcd1e226e2e3d182abe504d0d1cb414b9f8f11ffe814c2a342ba61c04b33b82e8054604080518285028101850190915281815284939092919083018282801561153257602002820191906000526020600020905b81548152602001906001019080831161151e575b505050505090506000815111156115615780600081518110611556576115566158d8565b602002602001015191505b5090565b60608261157181611e5b565b61158d5760405162461bcd60e51b81526004016108f290615636565b61113f848461381b565b6000816115a381611e5b565b6115bf5760405162461bcd60e51b81526004016108f290615636565b610f10836138e6565b826115d281611e5b565b6115ee5760405162461bcd60e51b81526004016108f290615636565b83336115f982611149565b6001600160a01b0316146116635760405162461bcd60e51b815260206004820152602b60248201527f44657269766174697665546f6b656e3a2063616c6c6572206973206e6f74207460448201526a37b5b2b71030baba3437b960a91b60648201526084016108f2565b61166e858585613a92565b5050505050565b61167e33610ceb565b6116b05761168a611e78565b80518251146116ab5760405162461bcd60e51b81526004016108f290615678565b6116db565b805115806116bf575080518251145b6116db5760405162461bcd60e51b81526004016108f2906156ee565b8051156116ed576116ed858383611ed2565b6116f78585613b7e565b6117018486613cf9565b61170b848361228f565b61166e8484612630565b60009182526097602090815260408084206001600160a01b0393909316845291905290205460ff1690565b606060ca80546109c590615743565b610edb338383613dc0565b60608261176681611e5b565b6117825760405162461bcd60e51b81526004016108f290615636565b606060008060006117c4888860009182526101606020908152604080842083516001600160a01b03168552825280842092820151845291905290205460ff1690565b60008981526101f0602090815260408083208b516001600160a01b0390811685529083528184208c840180518652908452828520548e86526101f285528386208e519093168652918452828520905185529092529091205491925060ff9081169116821561183a578461183681615952565b9550505b811561184e578461184a81615952565b9550505b8015611862578461185e81615952565b9550505b846001600160401b0381111561187a5761187a614db7565b6040519080825280602002602001820160405280156118a3578160200160208202803683370190505b50955082156118d95760658685815181106118c0576118c06158d8565b6020908102919091010152836118d581615952565b9450505b811561190d576103e98685815181106118f4576118f46158d8565b60209081029190910101528361190981615952565b9450505b8015611941576103ea868581518110611928576119286158d8565b60209081029190910101528361193d81615952565b9450505b509398975050505050505050565b60008161195b81611e5b565b6119775760405162461bcd60e51b81526004016108f290615636565b610f1083613e8e565b61198933610ceb565b6119fd576119973383612947565b6119b35760405162461bcd60e51b81526004016108f2906157f3565b6119bb6129c5565b156119d85760405162461bcd60e51b81526004016108f290615836565b6119e182611318565b6119fd5760405162461bcd60e51b81526004016108f290615886565b61098584848484613f2c565b611a14600033611715565b80611a2957506065546001600160a01b031633145b611a455760405162461bcd60e51b81526004016108f290615777565b611a4e81612ce3565b50565b600082611a5d81611e5b565b611a795760405162461bcd60e51b81526004016108f290615636565b60008481526101f26020908152604080832086516001600160a01b03168452825280832082870151845290915290205460ff1661113f565b60606109b082613f5f565b82611ac681611e5b565b611ae25760405162461bcd60e51b81526004016108f290615636565b8333611aed8261120b565b6001600160a01b031614611b565760405162461bcd60e51b815260206004820152602a60248201527f44657269766174697665546f6b656e3a2063616c6c6572206973206e6f74207460448201526937b5b2b71037bbb732b960b11b60648201526084016108f2565b61166e858585614067565b600081611b6d81611e5b565b611b895760405162461bcd60e51b81526004016108f290615636565b610f1083614153565b81611b9c81611e5b565b611bb85760405162461bcd60e51b81526004016108f290615636565b82611bc4600033611715565b80611bdf575033611bd48261120b565b6001600160a01b0316145b611bfb5760405162461bcd60e51b81526004016108f2906157b2565b61098584846142ff565b600082815260976020526040902060010154611c2081612bcc565b610b7f8383612da3565b606082611c3681611e5b565b611c525760405162461bcd60e51b81526004016108f290615636565b61113f8484614583565b81611c6681611e5b565b611c825760405162461bcd60e51b81526004016108f290615636565b82611c8e600033611715565b80611ca9575033611c9e82611149565b6001600160a01b0316145b611d005760405162461bcd60e51b81526020600482015260346024820152600080516020615edb8339815191526044820152733236b4b71037b9103a37b5b2b71030baba3437b960611b60648201526084016108f2565b6109858484613cf9565b611d12611e78565b6001600160a01b038116611d775760405162461bcd60e51b815260206004820152602660248201527f4f776e61626c653a206e6577206f776e657220697320746865207a65726f206160448201526564647265737360d01b60648201526084016108f2565b611a4e816137c9565b606081611d8c81611e5b565b611da85760405162461bcd60e51b81526004016108f290615636565b610f108361464c565b606082611dbd81611e5b565b611dd95760405162461bcd60e51b81526004016108f290615636565b60658303611df157611dea84612e93565b9150611142565b6103e98303611e0357611dea84612e0a565b6103ea8303611e1557611dea8461464c565b6040805160008082526020820190925290611e52565b6040805180820190915260008082526020820152815260200190600190039081611e2b5790505b50949350505050565b600090815260cb60205260409020546001600160a01b0316151590565b6065546001600160a01b031633146113e95760405162461bcd60e51b815260206004820181905260248201527f4f776e61626c653a2063616c6c6572206973206e6f7420746865206f776e657260448201526064016108f2565b60005b8251811015610985576000838281518110611ef257611ef26158d8565b60200260200101516000015190506000816001600160a01b0316636352211e868581518110611f2357611f236158d8565b6020026020010151602001516040518263ffffffff1660e01b8152600401611f4d91815260200190565b602060405180830381865afa158015611f6a573d6000803e3d6000fd5b505050506040513d601f19601f82011682018060405250810190611f8e919061596b565b9050856001600160a01b0316816001600160a01b03161461227a57816001600160a01b03166354f22f0d868581518110611fca57611fca6158d8565b602002602001015160200151868681518110611fe857611fe86158d8565b60200260200101516040518363ffffffff1660e01b815260040161200d929190615988565b602060405180830381865afa15801561202a573d6000803e3d6000fd5b505050506040513d601f19601f8201168201806040525081019061204e91906159af565b6120c05760405162461bcd60e51b815260206004820152603b60248201527f44657269766174697665546f6b656e3a20696e76616c6964206465726976617460448201527f697665206f7074696f6e20666f7220706172656e7420746f6b656e000000000060648201526084016108f2565b60008484815181106120d4576120d46158d8565b6020026020010151600001519050806001600160a01b031662728456868681518110612102576121026158d8565b602002602001015160200151306040518363ffffffff1660e01b815260040161213e9291909182526001600160a01b0316602082015260400190565b602060405180830381865afa15801561215b573d6000803e3d6000fd5b505050506040513d601f19601f8201168201806040525081019061217f91906159af565b6121e35760405162461bcd60e51b815260206004820152602f60248201527f44657269766174697665546f6b656e3a2064657269766174697665206f70746960448201526e6f6e206f7574206f662073636f706560881b60648201526084016108f2565b806001600160a01b031663f5298aca88878781518110612205576122056158d8565b60209081029190910181015101516040516001600160e01b031960e085901b1681526001600160a01b039092166004830152602482015260016044820152606401600060405180830381600087803b15801561226057600080fd5b505af1158015612274573d6000803e3d6000fd5b50505050505b5050808061228790615952565b915050611ed5565b600082815261015f6020908152604080832080548251818502810185019093528083529192909190849084015b82821015612304576000848152602090819020604080518082019091526002850290910180546001600160a01b031682526001908101548284015290835290920191016122bc565b505050600085815261015f60205260408120929350612324929150614d3d565b60005b81518110156123cf5761016060008581526020019081526020016000206000838381518110612358576123586158d8565b6020026020010151600001516001600160a01b03166001600160a01b031681526020019081526020016000206000838381518110612398576123986158d8565b6020908102919091018101518101518252810191909152604001600020805460ff19169055806123c781615952565b915050612327565b5060005b82518110156124f257600084815261015f6020526040902083518490839081106123ff576123ff6158d8565b6020908102919091018101518254600180820185556000948552838520835160029093020180546001600160a01b0319166001600160a01b0390931692909217825591830151908201558683526101609091526040822085519192909186908590811061246e5761246e6158d8565b6020026020010151600001516001600160a01b03166001600160a01b0316815260200190815260200160002060008584815181106124ae576124ae6158d8565b602002602001015160200151815260200190815260200160002060006101000a81548160ff02191690831515021790555080806124ea90615952565b9150506123d3565b50827f8360051b9fed9015819eb351423f674de7161a6ac6827c533d0bf57cad9e55f882846040516125259291906159cc565b60405180910390a2505050565b60006001600160e01b03198216630347c46f60e51b148061256357506001600160e01b03198216631dfd032f60e11b145b806109b057506109b0826146c0565b61257b81611e5b565b611a4e5760405162461bcd60e51b8152602060048201526018602482015277115490cdcc8c4e881a5b9d985b1a59081d1bdad95b88125160421b60448201526064016108f2565b600081815260cd6020526040902080546001600160a01b0319166001600160a01b03841690811790915581906125f78261120b565b6001600160a01b03167f8c5be1e5ebec7d5bd14f71427d1e84f3dd0314c0f7b2291e5b200ac8c7c3b92560405160405180910390a45050565b61263982611e5b565b61269c5760405162461bcd60e51b815260206004820152602e60248201527f45524337323155524953746f726167653a2055524920736574206f66206e6f6e60448201526d32bc34b9ba32b73a103a37b5b2b760911b60648201526084016108f2565b600082815260fb60205260409020610b7f8282615a37565b60005b815181101561290a5760008282815181106126d4576126d46158d8565b6020026020010151600001516001600160a01b031663a4e2ee11848481518110612700576127006158d8565b6020026020010151602001516040518263ffffffff1660e01b815260040161272a91815260200190565b6040805180830381865afa158015612746573d6000803e3d6000fd5b505050506040513d601f19601f8201168201806040525081019061276a9190615af6565b80519091506001600160a01b0316301480156127895750838160200151145b6127f35760405162461bcd60e51b815260206004820152603560248201527f4f7074696f6e61626c653a2064657269766174697665206f7074696f6e20697360448201527439bab2b91034b9903737ba103a3432903a37b5b2b760591b60648201526084016108f2565b60008481526101ef602052604090208351849084908110612816576128166158d8565b6020908102919091018101518254600180820185556000948552838520835160029093020180546001600160a01b0319166001600160a01b0390931692909217825591830151908201558683526101f090915260408220855191929091869086908110612885576128856158d8565b6020026020010151600001516001600160a01b03166001600160a01b0316815260200190815260200160002060008585815181106128c5576128c56158d8565b602002602001015160200151815260200190815260200160002060006101000a81548160ff02191690831515021790555050808061290290615952565b9150506126b7565b50817f6278dafb8e4b262ec652716fb5583d0c98b4491581ca8a2c3d45143c7c9138958260405161293b91906152cf565b60405180910390a25050565b6000806129538361120b565b9050806001600160a01b0316846001600160a01b0316148061299a57506001600160a01b03808216600090815260ce602090815260408083209388168352929052205460ff165b8061113f5750836001600160a01b03166129b384610a48565b6001600160a01b031614949350505050565b6000806129db6101bd546001600160a01b031690565b6040516335f9668960e21b81523060048201529091506000906001600160a01b0383169063d7e59a2490602401602060405180830381865afa158015612a25573d6000803e3d6000fd5b505050506040513d601f19601f82011682018060405250810190612a49919061596b565b6001600160a01b031615159392505050565b826001600160a01b0316612a6e8261120b565b6001600160a01b031614612a945760405162461bcd60e51b81526004016108f290615b4d565b6001600160a01b038216612af65760405162461bcd60e51b8152602060048201526024808201527f4552433732313a207472616e7366657220746f20746865207a65726f206164646044820152637265737360e01b60648201526084016108f2565b612b0383838360016146e5565b826001600160a01b0316612b168261120b565b6001600160a01b031614612b3c5760405162461bcd60e51b81526004016108f290615b4d565b600081815260cd6020908152604080832080546001600160a01b03199081169091556001600160a01b0387811680865260cc855283862080546000190190559087168086528386208054600101905586865260cb90945282852080549092168417909155905184937fddf252ad1be2c89b69c2b068fc378daa952ba7f163c4a11628f55a4df523b3ef91a4505050565b611a4e813361476d565b612be08282611715565b610edb5760008281526097602090815260408083206001600160a01b03851684529091529020805460ff19166001179055612c183390565b6001600160a01b0316816001600160a01b0316837f2f8788117e7eff1d82e926ec794901d17c78024a50270940304540a733656f0d60405160405180910390a45050565b600054610100900460ff166113e95760405162461bcd60e51b81526004016108f290615b92565b600054610100900460ff16612caa5760405162461bcd60e51b81526004016108f290615b92565b6113e96147c6565b600054610100900460ff16612cd95760405162461bcd60e51b81526004016108f290615b92565b610edb82826147f6565b6001600160a01b038116612d505760405162461bcd60e51b815260206004820152602e60248201527f526567697374727950726f78793a206e6577526567697374727920697320746860448201526d65207a65726f206164647265737360901b60648201526084016108f2565b6101bd80546001600160a01b038381166001600160a01b0319831681179093556040519116919082907fdd6fc134ae95f6482363d7fe1abce4814feca0f21f1b1c1236001d73770e276090600090a35050565b612dad8282611715565b15610edb5760008281526097602090815260408083206001600160a01b0385168085529252808320805460ff1916905551339285917ff6391f5c32d9c69d2a47ea670b442974b53935d1edc7fd64eb21e047a839171b9190a45050565b60606101ef6000838152602001908152602001600020805480602002602001604051908101604052809291908181526020016000905b82821015612e88576000848152602090819020604080518082019091526002850290910180546001600160a01b03168252600190810154828401529083529092019101612e40565b505050509050919050565b600081815261015f60209081526040808320805482518185028101850190935280835260609492939192909184018215612e88576000848152602090819020604080518082019091526002850290910180546001600160a01b03168252600190810154828401529083529092019101612e40565b6060600082516001600160401b03811115612f2457612f24614db7565b604051908082528060200260200182016040528015612f5757816020015b6060815260200190600190039081612f425790505b50905060005b83518110156132f1576000848281518110612f7a57612f7a6158d8565b60200260200101519050600081600001516001600160a01b031663b17af15e83602001516040518263ffffffff1660e01b8152600401612fbc91815260200190565b602060405180830381865afa158015612fd9573d6000803e3d6000fd5b505050506040513d601f19601f82011682018060405250810190612ffd9190615bdd565b905085518161300c9190615bf6565b90508060000361301d5750506132df565b8151602083015160405163139ba68160e21b815260048101919091526000916001600160a01b031690634e6e9a0490602401600060405180830381865afa15801561306c573d6000803e3d6000fd5b505050506040513d6000823e601f3d908101601f191682016040526130949190810190615c18565b90506000805b82518110156131275760008382815181106130b7576130b76158d8565b6020026020010151602001519050670de0b6b3a764000085826130da9190615cd6565b6130e49190615bf6565b9050808483815181106130f9576130f96158d8565b60209081029190910181015101526131118184615ced565b925050808061311f90615952565b91505061309a565b5060006131348285615d00565b90506000835160016131469190615ced565b6001600160401b0381111561315d5761315d614db7565b6040519080825280602002602001820160405280156131a257816020015b604080518082019091526000808252602082015281526020019060019003908161317b5790505b50905060005b84518110156131fb578481815181106131c3576131c36158d8565b60200260200101518282815181106131dd576131dd6158d8565b602002602001018190525080806131f390615952565b9150506131a8565b50604051806040016040528087600001516001600160a01b0316636352211e89602001516040518263ffffffff1660e01b815260040161323d91815260200190565b602060405180830381865afa15801561325a573d6000803e3d6000fd5b505050506040513d601f19601f8201168201806040525081019061327e919061596b565b6001600160a01b0316815260200183815250816001835161329f9190615d00565b815181106132af576132af6158d8565b6020026020010181905250808888815181106132cd576132cd6158d8565b60200260200101819052505050505050505b806132e981615952565b915050612f5d565b506000805b82518110156133955760005b838281518110613314576133146158d8565b60200260200101515181101561338257838281518110613336576133366158d8565b6020026020010151818151811061334f5761334f6158d8565b602002602001015160200151600014613370578261336c81615952565b9350505b8061337a81615952565b915050613302565b508061338d81615952565b9150506132f6565b506000816001600160401b038111156133b0576133b0614db7565b6040519080825280602002602001820160405280156133f557816020015b60408051808201909152600080825260208201528152602001906001900390816133ce5790505b5090506000805b84518110156134ec5760005b85828151811061341a5761341a6158d8565b6020026020010151518110156134d95785828151811061343c5761343c6158d8565b60200260200101518181518110613455576134556158d8565b6020026020010151602001516000146134c75785828151811061347a5761347a6158d8565b60200260200101518181518110613493576134936158d8565b60200260200101518484815181106134ad576134ad6158d8565b602002602001018190525082806134c390615952565b9350505b806134d181615952565b915050613408565b50806134e481615952565b9150506133fc565b509095945050505050565b81600080516020615e9b8339815191528114806135215750600080516020615ebb83398151915281145b806135395750600080516020615e7b83398151915281145b6135555760405162461bcd60e51b81526004016108f2906158ee565b60008381526101916020526040812061356d91614d5e565b60005b825181101561098557600084815261019160205260409020835184908390811061359c5761359c6158d8565b60209081029190910181015182546001810184556000938452919092200155806135c581615952565b915050613570565b600081815261012d60205260408120546001600160a01b0316806109b05760405162461bcd60e51b815260206004820152602e60248201527f417574686f7261626c653a20617574686f7220717565727920666f72206e6f6e60448201526d32bc34b9ba32b73a103a37b5b2b760911b60648201526084016108f2565b6000805b82518110156137c057600083828151811061366b5761366b6158d8565b6020026020010151600001519050806001600160a01b031663ced8d19185848151811061369a5761369a6158d8565b6020026020010151602001516040518263ffffffff1660e01b81526004016136c491815260200190565b602060405180830381865afa1580156136e1573d6000803e3d6000fd5b505050506040513d601f19601f8201168201806040525081019061370591906159af565b613713575060009392505050565b806001600160a01b031663695c6ac4858481518110613734576137346158d8565b6020026020010151602001516040518263ffffffff1660e01b815260040161375e91815260200190565b602060405180830381865afa15801561377b573d6000803e3d6000fd5b505050506040513d601f19601f8201168201806040525081019061379f91906159af565b6137ad575060009392505050565b50806137b881615952565b91505061364e565b50600192915050565b606580546001600160a01b038381166001600160a01b0319831681179093556040519116919082907f8be0079c531659141344cd1fd0a4f28419497f9722a3daafe3b4186f6b6457e090600090a35050565b606081600080516020615e9b8339815191528114806138475750600080516020615ebb83398151915281145b8061385f5750600080516020615e7b83398151915281145b61387b5760405162461bcd60e51b81526004016108f2906158ee565b600084815261019260209081526040808320868452825291829020805483518184028101840190945280845290918301828280156138d857602002820191906000526020600020905b8154815260200190600101908083116138c4575b505050505091505092915050565b600080516020615ebb833981519152600090815261019160209081527f678d57e93fc96e016b79f58b102c753b25b7869c61f569f5481a923c0d1e4b7b8054604080518285028101850190915281815284939092919083018282801561396b57602002820191906000526020600020905b815481526020019060010190808311613957575b505050600086815261019260209081526040808320600080516020615ebb83398151915284528252808320805482518185028101850190935280835296975092959094509192508301828280156139e157602002820191906000526020600020905b8154815260200190600101908083116139cd575b505050505090506000808351116139f9576000613a15565b82600081518110613a0c57613a0c6158d8565b60200260200101515b9050600080835111613a28576000613a44565b82600081518110613a3b57613a3b6158d8565b60200260200101515b90508160011480613a555750806001145b15613a665750600195945050505050565b8160021480613a755750806002145b15613a865750600095945050505050565b50600095945050505050565b81600080516020615e9b833981519152811480613abc5750600080516020615ebb83398151915281145b80613ad45750600080516020615e7b83398151915281145b613af05760405162461bcd60e51b81526004016108f2906158ee565b6000848152610193602090815260408083208684529091528120613b1391614d5e565b60005b825181101561166e5760008581526101936020908152604080832087845290915290208351849083908110613b4d57613b4d6158d8565b6020908102919091018101518254600181018455600093845291909220015580613b7681615952565b915050613b16565b6001600160a01b038216613bd45760405162461bcd60e51b815260206004820181905260248201527f4552433732313a206d696e7420746f20746865207a65726f206164647265737360448201526064016108f2565b613bdd81611e5b565b15613c2a5760405162461bcd60e51b815260206004820152601c60248201527f4552433732313a20746f6b656e20616c7265616479206d696e7465640000000060448201526064016108f2565b613c386000838360016146e5565b613c4181611e5b565b15613c8e5760405162461bcd60e51b815260206004820152601c60248201527f4552433732313a20746f6b656e20616c7265616479206d696e7465640000000060448201526064016108f2565b6001600160a01b038216600081815260cc602090815260408083208054600101905584835260cb90915280822080546001600160a01b0319168417905551839291907fddf252ad1be2c89b69c2b068fc378daa952ba7f163c4a11628f55a4df523b3ef908290a45050565b6001600160a01b038116613d615760405162461bcd60e51b815260206004820152602960248201527f417574686f7261626c653a206e6577417574686f7220697320746865207a65726044820152686f206164647265737360b81b60648201526084016108f2565b600082815261012d602052604080822080546001600160a01b031981166001600160a01b038681169182179093559251911692839186917f6560979d1d7f56a9e27267234de2c2e1337234c662d5dad55bf41d630b9031e791a4505050565b816001600160a01b0316836001600160a01b031603613e215760405162461bcd60e51b815260206004820152601960248201527f4552433732313a20617070726f766520746f2063616c6c65720000000000000060448201526064016108f2565b6001600160a01b03838116600081815260ce6020908152604080832094871680845294825291829020805460ff191686151590811790915591519182527f17307eab39ab6107e8899845ad3d59bd9653f200f220920489ca2b5937696c31910160405180910390a3505050565b600081815261019260209081526040808320600080516020615e7b8339815191528452825280832080548251818502810185019093528083528493830182828015613ef857602002820191906000526020600020905b815481526020019060010190808311613ee4575b50505050509050600081511115610f135780600081518110613f1c57613f1c6158d8565b6020026020010151915050919050565b613f37848484612a5b565b613f4384848484614836565b6109855760405162461bcd60e51b81526004016108f290615d13565b6060613f6a82612572565b600082815260fb602052604081208054613f8390615743565b80601f0160208091040260200160405190810160405280929190818152602001828054613faf90615743565b8015613ffc5780601f10613fd157610100808354040283529160200191613ffc565b820191906000526020600020905b815481529060010190602001808311613fdf57829003601f168201915b50505050509050600061401a60408051602081019091526000815290565b9050805160000361402c575092915050565b81511561405e578082604051602001614046929190615d65565b60405160208183030381529060405292505050919050565b6110c984614937565b81600080516020615e9b8339815191528114806140915750600080516020615ebb83398151915281145b806140a95750600080516020615e7b83398151915281145b6140c55760405162461bcd60e51b81526004016108f2906158ee565b60008481526101926020908152604080832086845290915281206140e891614d5e565b60005b825181101561166e5760008581526101926020908152604080832087845290915290208351849083908110614122576141226158d8565b602090810291909101810151825460018101845560009384529190922001558061414b81615952565b9150506140eb565b600080516020615e9b833981519152600090815261019160209081527fbd3a33499a2f157fabc842b002186e8b2def3712bd5089b692360c552b118acd805460408051828502810185019091528181528493909291908301828280156141d857602002820191906000526020600020905b8154815260200190600101908083116141c4575b505050600086815261019260209081526040808320600080516020615e9b833981519152845282528083208054825181850281018501909352808352969750929590945091925083018282801561424e57602002820191906000526020600020905b81548152602001906001019080831161423a575b50505050509050600080835111614266576000614282565b82600081518110614279576142796158d8565b60200260200101515b90506000808351116142955760006142b1565b826000815181106142a8576142a86158d8565b60200260200101515b905081600214806142c25750806002145b156142d35750600095945050505050565b81600114806142e25750806001145b156142f35750600195945050505050565b50600195945050505050565b60005b815181101561455257600082828151811061431f5761431f6158d8565b6020026020010151600001516001600160a01b031663a4e2ee1184848151811061434b5761434b6158d8565b6020026020010151602001516040518263ffffffff1660e01b815260040161437591815260200190565b6040805180830381865afa158015614391573d6000803e3d6000fd5b505050506040513d601f19601f820116820180604052508101906143b59190615af6565b80519091506001600160a01b0316301480156143d45750838160200151145b61443b5760405162461bcd60e51b815260206004820152603260248201527f4f7074696f6e61626c653a207574696c697479206f7074696f6e206973737565604482015271391034b9903737ba103a3432903a37b5b2b760711b60648201526084016108f2565b60008481526101f160205260409020835184908490811061445e5761445e6158d8565b6020908102919091018101518254600180820185556000948552838520835160029093020180546001600160a01b0319166001600160a01b0390931692909217825591830151908201558683526101f2909152604082208551919290918690869081106144cd576144cd6158d8565b6020026020010151600001516001600160a01b03166001600160a01b03168152602001908152602001600020600085858151811061450d5761450d6158d8565b602002602001015160200151815260200190815260200160002060006101000a81548160ff02191690831515021790555050808061454a90615952565b915050614302565b50817f8711ac9646598bacfe2d3dffcca9cb225009f3c1ef7158d3160a5eab13bf4c458260405161293b91906152cf565b606081600080516020615e9b8339815191528114806145af5750600080516020615ebb83398151915281145b806145c75750600080516020615e7b83398151915281145b6145e35760405162461bcd60e51b81526004016108f2906158ee565b600084815261019360209081526040808320868452825291829020805483518184028101840190945280845290918301828280156138d857602002820191906000526020600020908154815260200190600101908083116138c457505050505091505092915050565b60008181526101f160209081526040808320805482518185028101850190935280835260609492939192909184018215612e88576000848152602090819020604080518082019091526002850290910180546001600160a01b03168252600190810154828401529083529092019101612e40565b60006001600160e01b03198216633e5d99db60e01b14806109b057506109b0826149aa565b6001811115610985576001600160a01b0384161561472b576001600160a01b038416600090815260cc602052604081208054839290614725908490615d00565b90915550505b6001600160a01b03831615610985576001600160a01b038316600090815260cc602052604081208054839290614762908490615ced565b909155505050505050565b6147778282611715565b610edb57614784816149ea565b61478f8360206149fc565b6040516020016147a0929190615d94565b60408051601f198184030181529082905262461bcd60e51b82526108f291600401614ffb565b600054610100900460ff166147ed5760405162461bcd60e51b81526004016108f290615b92565b6113e9336137c9565b600054610100900460ff1661481d5760405162461bcd60e51b81526004016108f290615b92565b60c96148298382615a37565b5060ca610b7f8282615a37565b60006001600160a01b0384163b1561492c57604051630a85bd0160e11b81526001600160a01b0385169063150b7a029061487a903390899088908890600401615e09565b6020604051808303816000875af19250505080156148b5575060408051601f3d908101601f191682019092526148b291810190615e46565b60015b614912573d8080156148e3576040519150601f19603f3d011682016040523d82523d6000602084013e6148e8565b606091505b50805160000361490a5760405162461bcd60e51b81526004016108f290615d13565b805181602001fd5b6001600160e01b031916630a85bd0160e11b1490506110c9565b506001949350505050565b606061494282612572565b600061495960408051602081019091526000815290565b905060008151116149795760405180602001604052806000815250610f10565b8061498384614b9e565b604051602001614994929190615d65565b6040516020818303038152906040529392505050565b60006001600160e01b031982166380ac58cd60e01b14806149db57506001600160e01b03198216635b5e139f60e01b145b806109b057506109b082614c30565b60606109b06001600160a01b03831660145b60606000614a0b836002615cd6565b614a16906002615ced565b6001600160401b03811115614a2d57614a2d614db7565b6040519080825280601f01601f191660200182016040528015614a57576020820181803683370190505b509050600360fc1b81600081518110614a7257614a726158d8565b60200101906001600160f81b031916908160001a905350600f60fb1b81600181518110614aa157614aa16158d8565b60200101906001600160f81b031916908160001a9053506000614ac5846002615cd6565b614ad0906001615ced565b90505b6001811115614b48576f181899199a1a9b1b9c1cb0b131b232b360811b85600f1660108110614b0457614b046158d8565b1a60f81b828281518110614b1a57614b1a6158d8565b60200101906001600160f81b031916908160001a90535060049490941c93614b4181615e63565b9050614ad3565b508315614b975760405162461bcd60e51b815260206004820181905260248201527f537472696e67733a20686578206c656e67746820696e73756666696369656e7460448201526064016108f2565b9392505050565b60606000614bab83614c65565b60010190506000816001600160401b03811115614bca57614bca614db7565b6040519080825280601f01601f191660200182016040528015614bf4576020820181803683370190505b5090508181016020015b600019016f181899199a1a9b1b9c1cb0b131b232b360811b600a86061a8153600a8504945084614bfe57509392505050565b60006001600160e01b03198216637965db0b60e01b14806109b057506301ffc9a760e01b6001600160e01b03198316146109b0565b60008072184f03e93ff9f4daa797ed6e38ed64bf6a1f0160401b8310614ca45772184f03e93ff9f4daa797ed6e38ed64bf6a1f0160401b830492506040015b6d04ee2d6d415b85acef81000000008310614cd0576d04ee2d6d415b85acef8100000000830492506020015b662386f26fc100008310614cee57662386f26fc10000830492506010015b6305f5e1008310614d06576305f5e100830492506008015b6127108310614d1a57612710830492506004015b60648310614d2c576064830492506002015b600a83106109b05760010192915050565b5080546000825560020290600052602060002090810190611a4e9190614d7c565b5080546000825590600052602060002090810190611a4e9190614da2565b5b808211156115615780546001600160a01b031916815560006001820155600201614d7d565b5b808211156115615760008155600101614da3565b634e487b7160e01b600052604160045260246000fd5b604080519081016001600160401b0381118282101715614def57614def614db7565b60405290565b604051601f8201601f191681016001600160401b0381118282101715614e1d57614e1d614db7565b604052919050565b60006001600160401b03821115614e3e57614e3e614db7565b5060051b60200190565b6001600160a01b0381168114611a4e57600080fd5b600060408284031215614e6f57600080fd5b614e77614dcd565b90508135614e8481614e48565b808252506020820135602082015292915050565b600082601f830112614ea957600080fd5b81356020614ebe614eb983614e25565b614df5565b82815260069290921b84018101918181019086841115614edd57600080fd5b8286015b84811015614f0157614ef38882614e5d565b835291830191604001614ee1565b509695505050505050565b600080600060608486031215614f2157600080fd5b8335925060208401356001600160401b0380821115614f3f57600080fd5b614f4b87838801614e98565b93506040860135915080821115614f6157600080fd5b50614f6e86828701614e98565b9150509250925092565b6001600160e01b031981168114611a4e57600080fd5b600060208284031215614fa057600080fd5b8135614b9781614f78565b60005b83811015614fc6578181015183820152602001614fae565b50506000910152565b60008151808452614fe7816020860160208601614fab565b601f01601f19169290920160200192915050565b602081526000614b976020830184614fcf565b60006020828403121561502057600080fd5b5035919050565b6000806040838503121561503a57600080fd5b823561504581614e48565b946020939093013593505050565b60006001600160401b0383111561506c5761506c614db7565b61507f601f8401601f1916602001614df5565b905082815283838301111561509357600080fd5b828260208301376000602084830101529392505050565b600082601f8301126150bb57600080fd5b614b9783833560208501615053565b600080604083850312156150dd57600080fd5b8235915060208301356001600160401b038111156150fa57600080fd5b615106858286016150aa565b9150509250929050565b6000806040838503121561512357600080fd5b8235915060208301356001600160401b0381111561514057600080fd5b61510685828601614e98565b60008060006060848603121561516157600080fd5b833561516c81614e48565b9250602084013561517c81614e48565b929592945050506040919091013590565b60006020828403121561519f57600080fd5b8135614b9781614e48565b600080604083850312156151bd57600080fd5b8235915060208301356151cf81614e48565b809150509250929050565b600080600080600060a086880312156151f257600080fd5b85356151fd81614e48565b9450602086013561520d81614e48565b935060408601356001600160401b038082111561522957600080fd5b61523589838a016150aa565b9450606088013591508082111561524b57600080fd5b50615258888289016150aa565b925050608086013561526981614e48565b809150509295509295909350565b600081518084526020808501945080840160005b838110156152c4576152b187835180516001600160a01b03168252602090810151910152565b604096909601959082019060010161528b565b509495945050505050565b602081526000614b976020830184615277565b8015158114611a4e57600080fd5b6000806040838503121561530357600080fd5b823561530e81614e48565b915060208301356151cf816152e2565b602080825282518282018190526000919060409081850190868401855b8281101561536957815180516001600160a01b0316855286015186850152928401929085019060010161533b565b5091979650505050505050565b600082601f83011261538757600080fd5b81356020615397614eb983614e25565b82815260059290921b840181019181810190868411156153b657600080fd5b8286015b84811015614f0157803583529183019183016153ba565b600080604083850312156153e457600080fd5b8235915060208301356001600160401b0381111561540157600080fd5b61510685828601615376565b6000806060838503121561542057600080fd5b823591506154318460208501614e5d565b90509250929050565b6020808252825182820181905260009190848201906040850190845b8181101561547257835183529284019291840191600101615456565b50909695505050505050565b6000806040838503121561549157600080fd5b50508035926020909101359150565b6000806000606084860312156154b557600080fd5b833592506020840135915060408401356001600160401b038111156154d957600080fd5b614f6e86828701615376565b600080600080600060a086880312156154fd57600080fd5b853561550881614e48565b94506020860135935060408601356001600160401b038082111561552b57600080fd5b61553789838a016150aa565b9450606088013591508082111561554d57600080fd5b61555989838a01614e98565b9350608088013591508082111561556f57600080fd5b5061557c88828901614e98565b9150509295509295909350565b6000806000806080858703121561559f57600080fd5b84356155aa81614e48565b935060208501356155ba81614e48565b92506040850135915060608501356001600160401b038111156155dc57600080fd5b8501601f810187136155ed57600080fd5b6155fc87823560208401615053565b91505092959194509250565b6000806040838503121561561b57600080fd5b823561562681614e48565b915060208301356151cf81614e48565b60208082526022908201527f44657269766174697665546f6b656e3a206e6f6e6578697374656e7420746f6b60408201526132b760f11b606082015260800190565b60208082526050908201527f44657269766174697665546f6b656e3a20706172656e7420746f6b656e73206160408201527f6e642064657269766174697665206f7074696f6e73206d757374206265206f6660608201526f040e8d0ca40e6c2daca40d8cadccee8d60831b608082015260a00190565b60208082526035908201527f44657269766174697665546f6b656e3a20756e657870656374656420646572696040820152740ecc2e8d2ecca40dee0e8d2dedce640d8cadccee8d605b1b606082015260800190565b600181811c9082168061575757607f821691505b602082108103610f1357634e487b7160e01b600052602260045260246000fd5b6020808252602d90820152600080516020615edb83398151915260408201526c3236b4b71037b91037bbb732b960991b606082015260800190565b6020808252603390820152600080516020615edb8339815191526040820152723236b4b71037b9103a37b5b2b71037bbb732b960691b606082015260800190565b6020808252603590820152600080516020615edb8339815191526040820152743aba3437b934bd32b2103a37903a3930b739b332b960591b606082015260800190565b60208082526030908201527f44657269766174697665546f6b656e3a2063616e6e6f74207472616e7366657260408201526f1039b2b1b7b73230b93c903a37b5b2b760811b606082015260800190565b60208082526032908201527f44657269766174697665546f6b656e3a20746f6b656e206973206e6f74206c6960408201527131b2b739b2b2103a37903a3930b739b332b960711b606082015260800190565b634e487b7160e01b600052603260045260246000fd5b6020808252602e908201527f446572697661746976654c6963656e73653a20496e76616c6964206c6963656e60408201526d73652073657474696e67206b657960901b606082015260800190565b634e487b7160e01b600052601160045260246000fd5b6000600182016159645761596461593c565b5060010190565b60006020828403121561597d57600080fd5b8151614b9781614e48565b82815260608101614b97602083018480516001600160a01b03168252602090810151910152565b6000602082840312156159c157600080fd5b8151614b97816152e2565b6040815260006159df6040830185615277565b828103602084015261130f8185615277565b601f821115610b7f57600081815260208120601f850160051c81016020861015615a185750805b601f850160051c820191505b81811015610e5957828155600101615a24565b81516001600160401b03811115615a5057615a50614db7565b615a6481615a5e8454615743565b846159f1565b602080601f831160018114615a995760008415615a815750858301515b600019600386901b1c1916600185901b178555610e59565b600085815260208120601f198616915b82811015615ac857888601518255948401946001909101908401615aa9565b5085821015615ae65787850151600019600388901b60f8161c191681555b5050505050600190811b01905550565b600060408284031215615b0857600080fd5b604051604081018181106001600160401b0382111715615b2a57615b2a614db7565b6040528251615b3881614e48565b81526020928301519281019290925250919050565b60208082526025908201527f4552433732313a207472616e736665722066726f6d20696e636f72726563742060408201526437bbb732b960d91b606082015260800190565b6020808252602b908201527f496e697469616c697a61626c653a20636f6e7472616374206973206e6f74206960408201526a6e697469616c697a696e6760a81b606082015260800190565b600060208284031215615bef57600080fd5b5051919050565b600082615c1357634e487b7160e01b600052601260045260246000fd5b500490565b60006020808385031215615c2b57600080fd5b82516001600160401b03811115615c4157600080fd5b8301601f81018513615c5257600080fd5b8051615c60614eb982614e25565b81815260069190911b82018301908381019087831115615c7f57600080fd5b928401925b82841015615ccb5760408489031215615c9d5760008081fd5b615ca5614dcd565b8451615cb081614e48565b81528486015186820152825260409093019290840190615c84565b979650505050505050565b80820281158282048414176109b0576109b061593c565b808201808211156109b0576109b061593c565b818103818111156109b0576109b061593c565b60208082526032908201527f4552433732313a207472616e7366657220746f206e6f6e20455243373231526560408201527131b2b4bb32b91034b6b83632b6b2b73a32b960711b606082015260800190565b60008351615d77818460208801614fab565b835190830190615d8b818360208801614fab565b01949350505050565b7f416363657373436f6e74726f6c3a206163636f756e7420000000000000000000815260008351615dcc816017850160208801614fab565b7001034b99036b4b9b9b4b733903937b6329607d1b6017918401918201528351615dfd816028840160208801614fab565b01602801949350505050565b6001600160a01b0385811682528416602082015260408101839052608060608201819052600090615e3c90830184614fcf565b9695505050505050565b600060208284031215615e5857600080fd5b8151614b9781614f78565b600081615e7257615e7261593c565b50600019019056fef158acbee1a71c32335413c8499249a4c9b9596823c805978c364509c6d524beb774a2e318415f8bd79a80b5fbc87c51e22e4f23bd4e0f280f7833683971737fe96bbecf6b55c13d9658c5102a438edea32b1b2f0683e4efde0c2281e605321144657269766174697665546f6b656e3a2063616c6c6572206973206e6f742061a264697066735822122069f469282c58bf10e68cdbf4dbff44713d471a6ba3ca08104e5de15f6add009164736f6c63430008110033",
  "linkReferences": {},
  "deployedLinkReferences": {}
}