{
  "_format": "hh-sol-artifact-1",
  "contractName": "DerivativeOption",
  "sourceName": "contracts/option/derivative/DerivativeOption.sol",
  "abi": [
    {
      "anonymous": false,
      "inputs": [
        {
          "indexed": true,
          "internalType": "address",
          "name": "account",
          "type": "address"
        },
        {
          "indexed": true,
          "internalType": "address",
          "name": "operator",
          "type": "address"
        },
        {
          "indexed": false,
          "internalType": "bool",
          "name": "approved",
          "type": "bool"
        }
      ],
      "name": "ApprovalForAll",
      "type": "event"
    },
    {
      "anonymous": false,
      "inputs": [
        {
          "indexed": false,
          "internalType": "uint8",
          "name": "version",
          "type": "uint8"
        }
      ],
      "name": "Initialized",
      "type": "event"
    },
    {
      "anonymous": false,
      "inputs": [
        {
          "indexed": true,
          "internalType": "uint256",
          "name": "tokenId",
          "type": "uint256"
        },
        {
          "components": [
            {
              "internalType": "address",
              "name": "collection",
              "type": "address"
            },
            {
              "internalType": "uint256",
              "name": "id",
              "type": "uint256"
            }
          ],
          "indexed": false,
          "internalType": "struct LibToken.Token",
          "name": "issuer",
          "type": "tuple"
        }
      ],
      "name": "IssuerSet",
      "type": "event"
    },
    {
      "anonymous": false,
      "inputs": [
        {
          "indexed": true,
          "internalType": "address",
          "name": "previousOwner",
          "type": "address"
        },
        {
          "indexed": true,
          "internalType": "address",
          "name": "newOwner",
          "type": "address"
        }
      ],
      "name": "OwnershipTransferred",
      "type": "event"
    },
    {
      "anonymous": false,
      "inputs": [
        {
          "indexed": true,
          "internalType": "uint256",
          "name": "tokenId",
          "type": "uint256"
        },
        {
          "indexed": false,
          "internalType": "address[]",
          "name": "scopes",
          "type": "address[]"
        }
      ],
      "name": "ScopesAdded",
      "type": "event"
    },
    {
      "anonymous": false,
      "inputs": [
        {
          "indexed": true,
          "internalType": "address",
          "name": "operator",
          "type": "address"
        },
        {
          "indexed": true,
          "internalType": "address",
          "name": "from",
          "type": "address"
        },
        {
          "indexed": true,
          "internalType": "address",
          "name": "to",
          "type": "address"
        },
        {
          "indexed": false,
          "internalType": "uint256[]",
          "name": "ids",
          "type": "uint256[]"
        },
        {
          "indexed": false,
          "internalType": "uint256[]",
          "name": "values",
          "type": "uint256[]"
        }
      ],
      "name": "TransferBatch",
      "type": "event"
    },
    {
      "anonymous": false,
      "inputs": [
        {
          "indexed": true,
          "internalType": "address",
          "name": "operator",
          "type": "address"
        },
        {
          "indexed": true,
          "internalType": "address",
          "name": "from",
          "type": "address"
        },
        {
          "indexed": true,
          "internalType": "address",
          "name": "to",
          "type": "address"
        },
        {
          "indexed": false,
          "internalType": "uint256",
          "name": "id",
          "type": "uint256"
        },
        {
          "indexed": false,
          "internalType": "uint256",
          "name": "value",
          "type": "uint256"
        }
      ],
      "name": "TransferSingle",
      "type": "event"
    },
    {
      "anonymous": false,
      "inputs": [
        {
          "indexed": false,
          "internalType": "string",
          "name": "value",
          "type": "string"
        },
        {
          "indexed": true,
          "internalType": "uint256",
          "name": "id",
          "type": "uint256"
        }
      ],
      "name": "URI",
      "type": "event"
    },
    {
      "inputs": [
        {
          "internalType": "address",
          "name": "account",
          "type": "address"
        },
        {
          "internalType": "uint256",
          "name": "id",
          "type": "uint256"
        }
      ],
      "name": "balanceOf",
      "outputs": [
        {
          "internalType": "uint256",
          "name": "",
          "type": "uint256"
        }
      ],
      "stateMutability": "view",
      "type": "function"
    },
    {
      "inputs": [
        {
          "internalType": "address[]",
          "name": "accounts",
          "type": "address[]"
        },
        {
          "internalType": "uint256[]",
          "name": "ids",
          "type": "uint256[]"
        }
      ],
      "name": "balanceOfBatch",
      "outputs": [
        {
          "internalType": "uint256[]",
          "name": "",
          "type": "uint256[]"
        }
      ],
      "stateMutability": "view",
      "type": "function"
    },
    {
      "inputs": [
        {
          "internalType": "address",
          "name": "from",
          "type": "address"
        },
        {
          "internalType": "uint256",
          "name": "id",
          "type": "uint256"
        },
        {
          "internalType": "uint256",
          "name": "amount",
          "type": "uint256"
        }
      ],
      "name": "burn",
      "outputs": [],
      "stateMutability": "nonpayable",
      "type": "function"
    },
    {
      "inputs": [
        {
          "internalType": "address",
          "name": "from",
          "type": "address"
        },
        {
          "internalType": "uint256[]",
          "name": "ids",
          "type": "uint256[]"
        },
        {
          "internalType": "uint256[]",
          "name": "amounts",
          "type": "uint256[]"
        }
      ],
      "name": "burnBatch",
      "outputs": [],
      "stateMutability": "nonpayable",
      "type": "function"
    },
    {
      "inputs": [
        {
          "internalType": "uint256",
          "name": "tokenId",
          "type": "uint256"
        },
        {
          "internalType": "address",
          "name": "scope",
          "type": "address"
        }
      ],
      "name": "inScopes",
      "outputs": [
        {
          "internalType": "bool",
          "name": "",
          "type": "bool"
        }
      ],
      "stateMutability": "view",
      "type": "function"
    },
    {
      "inputs": [
        {
          "internalType": "address",
          "name": "owner",
          "type": "address"
        },
        {
          "internalType": "string",
          "name": "uri",
          "type": "string"
        }
      ],
      "name": "initialize",
      "outputs": [],
      "stateMutability": "nonpayable",
      "type": "function"
    },
    {
      "inputs": [
        {
          "internalType": "address",
          "name": "account",
          "type": "address"
        },
        {
          "internalType": "address",
          "name": "operator",
          "type": "address"
        }
      ],
      "name": "isApprovedForAll",
      "outputs": [
        {
          "internalType": "bool",
          "name": "",
          "type": "bool"
        }
      ],
      "stateMutability": "view",
      "type": "function"
    },
    {
      "inputs": [
        {
          "internalType": "uint256",
          "name": "tokenId",
          "type": "uint256"
        }
      ],
      "name": "issuerOf",
      "outputs": [
        {
          "components": [
            {
              "internalType": "address",
              "name": "collection",
              "type": "address"
            },
            {
              "internalType": "uint256",
              "name": "id",
              "type": "uint256"
            }
          ],
          "internalType": "struct LibToken.Token",
          "name": "",
          "type": "tuple"
        }
      ],
      "stateMutability": "view",
      "type": "function"
    },
    {
      "inputs": [
        {
          "internalType": "address",
          "name": "to",
          "type": "address"
        },
        {
          "internalType": "uint256",
          "name": "amount",
          "type": "uint256"
        },
        {
          "components": [
            {
              "internalType": "address",
              "name": "collection",
              "type": "address"
            },
            {
              "internalType": "uint256",
              "name": "id",
              "type": "uint256"
            }
          ],
          "internalType": "struct LibToken.Token",
          "name": "issuer",
          "type": "tuple"
        },
        {
          "internalType": "address[]",
          "name": "scopes",
          "type": "address[]"
        }
      ],
      "name": "mint",
      "outputs": [
        {
          "internalType": "uint256",
          "name": "",
          "type": "uint256"
        }
      ],
      "stateMutability": "nonpayable",
      "type": "function"
    },
    {
      "inputs": [
        {
          "internalType": "address",
          "name": "to",
          "type": "address"
        },
        {
          "internalType": "uint256[]",
          "name": "amounts",
          "type": "uint256[]"
        },
        {
          "components": [
            {
              "internalType": "address",
              "name": "collection",
              "type": "address"
            },
            {
              "internalType": "uint256",
              "name": "id",
              "type": "uint256"
            }
          ],
          "internalType": "struct LibToken.Token[]",
          "name": "issuers",
          "type": "tuple[]"
        },
        {
          "internalType": "address[]",
          "name": "scopes",
          "type": "address[]"
        }
      ],
      "name": "mintBatch",
      "outputs": [
        {
          "internalType": "uint256[]",
          "name": "",
          "type": "uint256[]"
        }
      ],
      "stateMutability": "nonpayable",
      "type": "function"
    },
    {
      "inputs": [],
      "name": "owner",
      "outputs": [
        {
          "internalType": "address",
          "name": "",
          "type": "address"
        }
      ],
      "stateMutability": "view",
      "type": "function"
    },
    {
      "inputs": [],
      "name": "renounceOwnership",
      "outputs": [],
      "stateMutability": "nonpayable",
      "type": "function"
    },
    {
      "inputs": [
        {
          "internalType": "uint256",
          "name": "tokenId",
          "type": "uint256"
        }
      ],
      "name": "royaltiesFrom",
      "outputs": [
        {
          "components": [
            {
              "internalType": "address payable",
              "name": "receiver",
              "type": "address"
            },
            {
              "internalType": "uint256",
              "name": "fraction",
              "type": "uint256"
            }
          ],
          "internalType": "struct LibRoyalty.Royalty[]",
          "name": "royalties",
          "type": "tuple[]"
        }
      ],
      "stateMutability": "view",
      "type": "function"
    },
    {
      "inputs": [
        {
          "internalType": "address",
          "name": "from",
          "type": "address"
        },
        {
          "internalType": "address",
          "name": "to",
          "type": "address"
        },
        {
          "internalType": "uint256[]",
          "name": "ids",
          "type": "uint256[]"
        },
        {
          "internalType": "uint256[]",
          "name": "amounts",
          "type": "uint256[]"
        },
        {
          "internalType": "bytes",
          "name": "data",
          "type": "bytes"
        }
      ],
      "name": "safeBatchTransferFrom",
      "outputs": [],
      "stateMutability": "nonpayable",
      "type": "function"
    },
    {
      "inputs": [
        {
          "internalType": "address",
          "name": "from",
          "type": "address"
        },
        {
          "internalType": "address",
          "name": "to",
          "type": "address"
        },
        {
          "internalType": "uint256",
          "name": "id",
          "type": "uint256"
        },
        {
          "internalType": "uint256",
          "name": "amount",
          "type": "uint256"
        },
        {
          "internalType": "bytes",
          "name": "data",
          "type": "bytes"
        }
      ],
      "name": "safeTransferFrom",
      "outputs": [],
      "stateMutability": "nonpayable",
      "type": "function"
    },
    {
      "inputs": [
        {
          "internalType": "address",
          "name": "operator",
          "type": "address"
        },
        {
          "internalType": "bool",
          "name": "approved",
          "type": "bool"
        }
      ],
      "name": "setApprovalForAll",
      "outputs": [],
      "stateMutability": "nonpayable",
      "type": "function"
    },
    {
      "inputs": [
        {
          "internalType": "bytes4",
          "name": "interfaceId",
          "type": "bytes4"
        }
      ],
      "name": "supportsInterface",
      "outputs": [
        {
          "internalType": "bool",
          "name": "",
          "type": "bool"
        }
      ],
      "stateMutability": "view",
      "type": "function"
    },
    {
      "inputs": [
        {
          "internalType": "address",
          "name": "newOwner",
          "type": "address"
        }
      ],
      "name": "transferOwnership",
      "outputs": [],
      "stateMutability": "nonpayable",
      "type": "function"
    },
    {
      "inputs": [
        {
          "internalType": "uint256",
          "name": "",
          "type": "uint256"
        }
      ],
      "name": "uri",
      "outputs": [
        {
          "internalType": "string",
          "name": "",
          "type": "string"
        }
      ],
      "stateMutability": "view",
      "type": "function"
    },
    {
      "inputs": [],
      "name": "version",
      "outputs": [
        {
          "internalType": "uint256",
          "name": "",
          "type": "uint256"
        }
      ],
      "stateMutability": "pure",
      "type": "function"
    }
  ],
  "bytecode": "0x608060405234801561001057600080fd5b50612a5f806100206000396000f3fe608060405234801561001057600080fd5b506004361061012a5760003560e01c8063715018a6116100ad578063e985e9c511610071578063e985e9c5146102ad578063f242432a146102e9578063f2fde38b146102fc578063f399e22e1461030f578063f5298aca1461032257600080fd5b8063715018a61461022d57806389ea5240146102355780638da5cb5b14610248578063a22cb46514610263578063a4e2ee111461027657600080fd5b80634e1273f4116100f45780634e1273f4146101c05780634e6e9a04146101e057806354fd4d5014610200578063588ea995146102075780636b20c4541461021a57600080fd5b80627284561461012f578062fdd58e1461015757806301ffc9a7146101785780630e89341c1461018b5780632eb2c2d6146101ab575b600080fd5b61014261013d366004611ae0565b610335565b60405190151581526020015b60405180910390f35b61016a610165366004611b10565b610383565b60405190815260200161014e565b610142610186366004611b52565b61041b565b61019e610199366004611b6f565b610426565b60405161014e9190611bce565b6101be6101b9366004611d59565b6104ba565b005b6101d36101ce366004611e75565b610506565b60405161014e9190611f13565b6101f36101ee366004611b6f565b61062f565b60405161014e9190611f26565b600261016a565b61016a610215366004611fd6565b61073e565b6101be610228366004612040565b61079d565b6101be6107e7565b6101d36102433660046120b5565b6107fb565b6065546040516001600160a01b03909116815260200161014e565b6101be6102713660046121ab565b61098f565b610289610284366004611b6f565b61099e565b6040805182516001600160a01b03168152602092830151928101929092520161014e565b6101426102bb3660046121de565b6001600160a01b03918216600090815260986020908152604080832093909416825291909152205460ff1690565b6101be6102f736600461220c565b6109e5565b6101be61030a366004612274565b610a2a565b6101be61031d366004612291565b610aa3565b6101be6103303660046122ea565b610bc8565b600082815260c9602052604081205481036103525750600161037d565b50600082815260c9602090815260408083206001600160a01b038516845260010190915290205460ff165b92915050565b60006001600160a01b0383166103f35760405162461bcd60e51b815260206004820152602a60248201527f455243313135353a2061646472657373207a65726f206973206e6f742061207660448201526930b634b21037bbb732b960b11b60648201526084015b60405180910390fd5b5060009081526097602090815260408083206001600160a01b03949094168352929052205490565b600061037d82610c0c565b6060609980546104359061231f565b80601f01602080910402602001604051908101604052809291908181526020018280546104619061231f565b80156104ae5780601f10610483576101008083540402835291602001916104ae565b820191906000526020600020905b81548152906001019060200180831161049157829003601f168201915b50505050509050919050565b6001600160a01b0385163314806104d657506104d685336102bb565b6104f25760405162461bcd60e51b81526004016103ea90612359565b6104ff8585858585610c5c565b5050505050565b6060815183511461056b5760405162461bcd60e51b815260206004820152602960248201527f455243313135353a206163636f756e747320616e6420696473206c656e677468604482015268040dad2e6dac2e8c6d60bb1b60648201526084016103ea565b600083516001600160401b0381111561058657610586611be1565b6040519080825280602002602001820160405280156105af578160200160208202803683370190505b50905060005b8451811015610627576105fa8582815181106105d3576105d36123a7565b60200260200101518583815181106105ed576105ed6123a7565b6020026020010151610383565b82828151811061060c5761060c6123a7565b6020908102919091010152610620816123d3565b90506105b5565b509392505050565b6060600061063c8361099e565b80519091506001600160a01b03166106bc5760405162461bcd60e51b815260206004820152603760248201527f446572697661746976654f7074696f6e3a2069737375657220636f6c6c65637460448201527f696f6e20697320746865207a65726f206164647265737300000000000000000060648201526084016103ea565b805160208201516040516333e88d5f60e11b81526001600160a01b03909216916367d11abe916106f29160040190815260200190565b600060405180830381865afa15801561070f573d6000803e3d6000fd5b505050506040513d6000823e601f3d908101601f1916820160405261073791908101906123ec565b9392505050565b6000610748610dfb565b600061075461012d5490565b90506107608185610e55565b61076a8184610fb5565b61078586828760405180602001604052806000815250611088565b61079461012d80546001019055565b95945050505050565b826001600160a01b0381163314806107ba57506107ba81336102bb565b6107d65760405162461bcd60e51b81526004016103ea906124b7565b6107e1848484611164565b50505050565b6107ef610dfb565b6107f960006112f1565b565b6060610805610dfb565b825184511461087e576040805162461bcd60e51b81526020600482015260248101919091527f446572697661746976654f7074696f6e3a20616d6f756e747320616e6420697360448201527f7375657273206d757374206265206f66207468652073616d65206c656e67746860648201526084016103ea565b600084516001600160401b0381111561089957610899611be1565b6040519080825280602002602001820160405280156108c2578160200160208202803683370190505b50905060005b85518110156109735761012d548282815181106108e7576108e76123a7565b60200260200101818152505061092f828281518110610908576109086123a7565b6020026020010151868381518110610922576109226123a7565b6020026020010151610e55565b610952828281518110610944576109446123a7565b602002602001015185610fb5565b61096161012d80546001019055565b8061096b816123d3565b9150506108c8565b5061079486828760405180602001604052806000815250611343565b61099a33838361148f565b5050565b604080518082019091526000808252602082015250600090815260fb6020908152604091829020825180840190935280546001600160a01b03168352600101549082015290565b6001600160a01b038516331480610a015750610a0185336102bb565b610a1d5760405162461bcd60e51b81526004016103ea90612359565b6104ff858585858561156f565b610a32610dfb565b6001600160a01b038116610a975760405162461bcd60e51b815260206004820152602660248201527f4f776e61626c653a206e6577206f776e657220697320746865207a65726f206160448201526564647265737360d01b60648201526084016103ea565b610aa0816112f1565b50565b600054610100900460ff1615808015610ac35750600054600160ff909116105b80610add5750303b158015610add575060005460ff166001145b610b405760405162461bcd60e51b815260206004820152602e60248201527f496e697469616c697a61626c653a20636f6e747261637420697320616c72656160448201526d191e481a5b9a5d1a585b1a5e995960921b60648201526084016103ea565b6000805460ff191660011790558015610b63576000805461ff0019166101001790555b610b6b61169d565b610b74826116cc565b610b7d83610a2a565b8015610bc3576000805461ff0019169055604051600181527f7f26b83ff96e1f2b6a682f133852f6798a09c465da95921460cefb38474024989060200160405180910390a15b505050565b826001600160a01b038116331480610be55750610be581336102bb565b610c015760405162461bcd60e51b81526004016103ea906124b7565b6107e18484846116fc565b60006001600160e01b03198216636cdb3d1360e11b1480610c3d57506001600160e01b031982166303a24d0760e21b145b8061037d57506301ffc9a760e01b6001600160e01b031983161461037d565b8151835114610c7d5760405162461bcd60e51b81526004016103ea90612514565b6001600160a01b038416610ca35760405162461bcd60e51b81526004016103ea9061255c565b3360005b8451811015610d8d576000858281518110610cc457610cc46123a7565b602002602001015190506000858381518110610ce257610ce26123a7565b60209081029190910181015160008481526097835260408082206001600160a01b038e168352909352919091205490915081811015610d335760405162461bcd60e51b81526004016103ea906125a1565b60008381526097602090815260408083206001600160a01b038e8116855292528083208585039055908b16825281208054849290610d729084906125eb565b9250508190555050505080610d86906123d3565b9050610ca7565b50846001600160a01b0316866001600160a01b0316826001600160a01b03167f4a39dc06d4c0dbc64b70af90fd698a233a518aa5d07e595d983b8c0526c8f7fb8787604051610ddd9291906125fe565b60405180910390a4610df3818787878787611803565b505050505050565b6065546001600160a01b031633146107f95760405162461bcd60e51b815260206004820181905260248201527f4f776e61626c653a2063616c6c6572206973206e6f7420746865206f776e657260448201526064016103ea565b80516001600160a01b0316610ec45760405162461bcd60e51b815260206004820152602f60248201527f4973737561626c653a2069737375657220636f6c6c656374696f6e206973207460448201526e6865207a65726f206164647265737360881b60648201526084016103ea565b600082815260fb60205260409020546001600160a01b031615610f375760405162461bcd60e51b815260206004820152602560248201527f4973737561626c653a206973737565722068617320616c7265616479206265656044820152641b881cd95d60da1b60648201526084016103ea565b600082815260fb6020908152604091829020835181546001600160a01b0319166001600160a01b0390911690811782558483018051600190930192909255835190815290519181019190915283917fcd64576751caf271c6471098eb40940e8598566552076e0a9b9bd9af9cb2935191015b60405180910390a25050565b8051600083815260c9602052604081208054909190610fd59084906125eb565b90915550600090505b815181101561105757600160c960008581526020019081526020016000206001016000848481518110611013576110136123a7565b6020908102919091018101516001600160a01b03168252810191909152604001600020805460ff19169115159190911790558061104f816123d3565b915050610fde565b50817fa9a885b2eafd1bf547bfdc20cf5a1ca556810e62649239a9811c5667d71bbd7282604051610fa99190612623565b6001600160a01b0384166110ae5760405162461bcd60e51b81526004016103ea90612670565b3360006110ba8561195e565b905060006110c78561195e565b905060008681526097602090815260408083206001600160a01b038b168452909152812080548792906110fb9084906125eb565b909155505060408051878152602081018790526001600160a01b03808a1692600092918716917fc3d58168c5ae7397731d063d5bbf3d657854427343f4c083240f7aacaa2d0f62910160405180910390a461115b836000898989896119a9565b50505050505050565b6001600160a01b03831661118a5760405162461bcd60e51b81526004016103ea906126b1565b80518251146111ab5760405162461bcd60e51b81526004016103ea90612514565b604080516020810190915260009081905233905b83518110156112845760008482815181106111dc576111dc6123a7565b6020026020010151905060008483815181106111fa576111fa6123a7565b60209081029190910181015160008481526097835260408082206001600160a01b038c16835290935291909120549091508181101561124b5760405162461bcd60e51b81526004016103ea906126f4565b60009283526097602090815260408085206001600160a01b038b168652909152909220910390558061127c816123d3565b9150506111bf565b5060006001600160a01b0316846001600160a01b0316826001600160a01b03167f4a39dc06d4c0dbc64b70af90fd698a233a518aa5d07e595d983b8c0526c8f7fb86866040516112d59291906125fe565b60405180910390a46040805160208101909152600090526107e1565b606580546001600160a01b038381166001600160a01b0319831681179093556040519116919082907f8be0079c531659141344cd1fd0a4f28419497f9722a3daafe3b4186f6b6457e090600090a35050565b6001600160a01b0384166113695760405162461bcd60e51b81526004016103ea90612670565b815183511461138a5760405162461bcd60e51b81526004016103ea90612514565b3360005b8451811015611427578381815181106113a9576113a96123a7565b6020026020010151609760008784815181106113c7576113c76123a7565b602002602001015181526020019081526020016000206000886001600160a01b03166001600160a01b03168152602001908152602001600020600082825461140f91906125eb565b9091555081905061141f816123d3565b91505061138e565b50846001600160a01b031660006001600160a01b0316826001600160a01b03167f4a39dc06d4c0dbc64b70af90fd698a233a518aa5d07e595d983b8c0526c8f7fb87876040516114789291906125fe565b60405180910390a46104ff81600087878787611803565b816001600160a01b0316836001600160a01b0316036115025760405162461bcd60e51b815260206004820152602960248201527f455243313135353a2073657474696e6720617070726f76616c20737461747573604482015268103337b91039b2b63360b91b60648201526084016103ea565b6001600160a01b03838116600081815260986020908152604080832094871680845294825291829020805460ff191686151590811790915591519182527f17307eab39ab6107e8899845ad3d59bd9653f200f220920489ca2b5937696c31910160405180910390a3505050565b6001600160a01b0384166115955760405162461bcd60e51b81526004016103ea9061255c565b3360006115a18561195e565b905060006115ae8561195e565b905060008681526097602090815260408083206001600160a01b038c168452909152902054858110156115f35760405162461bcd60e51b81526004016103ea906125a1565b60008781526097602090815260408083206001600160a01b038d8116855292528083208985039055908a168252812080548892906116329084906125eb565b909155505060408051888152602081018890526001600160a01b03808b16928c821692918816917fc3d58168c5ae7397731d063d5bbf3d657854427343f4c083240f7aacaa2d0f62910160405180910390a4611692848a8a8a8a8a6119a9565b505050505050505050565b600054610100900460ff166116c45760405162461bcd60e51b81526004016103ea90612738565b6107f9611a64565b600054610100900460ff166116f35760405162461bcd60e51b81526004016103ea90612738565b610aa081611a94565b6001600160a01b0383166117225760405162461bcd60e51b81526004016103ea906126b1565b33600061172e8461195e565b9050600061173b8461195e565b6040805160208082018352600091829052888252609781528282206001600160a01b038b16835290522054909150848110156117895760405162461bcd60e51b81526004016103ea906126f4565b60008681526097602090815260408083206001600160a01b038b81168086529184528285208a8703905582518b81529384018a90529092908816917fc3d58168c5ae7397731d063d5bbf3d657854427343f4c083240f7aacaa2d0f62910160405180910390a460408051602081019091526000905261115b565b6001600160a01b0384163b15610df35760405163bc197c8160e01b81526001600160a01b0385169063bc197c81906118479089908990889088908890600401612783565b6020604051808303816000875af1925050508015611882575060408051601f3d908101601f1916820190925261187f918101906127d5565b60015b61192e5761188e6127f2565b806308c379a0036118c757506118a261280e565b806118ad57506118c9565b8060405162461bcd60e51b81526004016103ea9190611bce565b505b60405162461bcd60e51b815260206004820152603460248201527f455243313135353a207472616e7366657220746f206e6f6e2d455243313135356044820152732932b1b2b4bb32b91034b6b83632b6b2b73a32b960611b60648201526084016103ea565b6001600160e01b0319811663bc197c8160e01b1461115b5760405162461bcd60e51b81526004016103ea90612897565b60408051600180825281830190925260609160009190602080830190803683370190505090508281600081518110611998576119986123a7565b602090810291909101015292915050565b6001600160a01b0384163b15610df35760405163f23a6e6160e01b81526001600160a01b0385169063f23a6e61906119ed90899089908890889088906004016128df565b6020604051808303816000875af1925050508015611a28575060408051601f3d908101601f19168201909252611a25918101906127d5565b60015b611a345761188e6127f2565b6001600160e01b0319811663f23a6e6160e01b1461115b5760405162461bcd60e51b81526004016103ea90612897565b600054610100900460ff16611a8b5760405162461bcd60e51b81526004016103ea90612738565b6107f9336112f1565b600054610100900460ff16611abb5760405162461bcd60e51b81526004016103ea90612738565b610aa081609961099a828261296a565b6001600160a01b0381168114610aa057600080fd5b60008060408385031215611af357600080fd5b823591506020830135611b0581611acb565b809150509250929050565b60008060408385031215611b2357600080fd5b8235611b2e81611acb565b946020939093013593505050565b6001600160e01b031981168114610aa057600080fd5b600060208284031215611b6457600080fd5b813561073781611b3c565b600060208284031215611b8157600080fd5b5035919050565b6000815180845260005b81811015611bae57602081850181015186830182015201611b92565b506000602082860101526020601f19601f83011685010191505092915050565b6020815260006107376020830184611b88565b634e487b7160e01b600052604160045260246000fd5b604081018181106001600160401b0382111715611c1657611c16611be1565b60405250565b601f8201601f191681016001600160401b0381118282101715611c4157611c41611be1565b6040525050565b60006001600160401b03821115611c6157611c61611be1565b5060051b60200190565b600082601f830112611c7c57600080fd5b81356020611c8982611c48565b604051611c968282611c1c565b83815260059390931b8501820192828101915086841115611cb657600080fd5b8286015b84811015611cd15780358352918301918301611cba565b509695505050505050565b60006001600160401b03831115611cf557611cf5611be1565b604051611d0c601f8501601f191660200182611c1c565b809150838152848484011115611d2157600080fd5b83836020830137600060208583010152509392505050565b600082601f830112611d4a57600080fd5b61073783833560208501611cdc565b600080600080600060a08688031215611d7157600080fd5b8535611d7c81611acb565b94506020860135611d8c81611acb565b935060408601356001600160401b0380821115611da857600080fd5b611db489838a01611c6b565b94506060880135915080821115611dca57600080fd5b611dd689838a01611c6b565b93506080880135915080821115611dec57600080fd5b50611df988828901611d39565b9150509295509295909350565b600082601f830112611e1757600080fd5b81356020611e2482611c48565b604051611e318282611c1c565b83815260059390931b8501820192828101915086841115611e5157600080fd5b8286015b84811015611cd1578035611e6881611acb565b8352918301918301611e55565b60008060408385031215611e8857600080fd5b82356001600160401b0380821115611e9f57600080fd5b611eab86838701611e06565b93506020850135915080821115611ec157600080fd5b50611ece85828601611c6b565b9150509250929050565b600081518084526020808501945080840160005b83811015611f0857815187529582019590820190600101611eec565b509495945050505050565b6020815260006107376020830184611ed8565b602080825282518282018190526000919060409081850190868401855b82811015611f7157815180516001600160a01b03168552860151868501529284019290850190600101611f43565b5091979650505050505050565b600060408284031215611f9057600080fd5b604051604081018181106001600160401b0382111715611fb257611fb2611be1565b6040529050808235611fc381611acb565b8152602092830135920191909152919050565b60008060008060a08587031215611fec57600080fd5b8435611ff781611acb565b93506020850135925061200d8660408701611f7e565b915060808501356001600160401b0381111561202857600080fd5b61203487828801611e06565b91505092959194509250565b60008060006060848603121561205557600080fd5b833561206081611acb565b925060208401356001600160401b038082111561207c57600080fd5b61208887838801611c6b565b9350604086013591508082111561209e57600080fd5b506120ab86828701611c6b565b9150509250925092565b600080600080608085870312156120cb57600080fd5b84356120d681611acb565b93506020858101356001600160401b03808211156120f357600080fd5b6120ff89838a01611c6b565b955060409150818801358181111561211657600080fd5b8801601f81018a1361212757600080fd5b803561213281611c48565b845161213e8282611c1c565b82815260069290921b830186019186810191508c83111561215e57600080fd5b928601925b82841015612184576121758d85611f7e565b82529285019290860190612163565b9750505050606088013592508083111561219d57600080fd5b505061203487828801611e06565b600080604083850312156121be57600080fd5b82356121c981611acb565b915060208301358015158114611b0557600080fd5b600080604083850312156121f157600080fd5b82356121fc81611acb565b91506020830135611b0581611acb565b600080600080600060a0868803121561222457600080fd5b853561222f81611acb565b9450602086013561223f81611acb565b9350604086013592506060860135915060808601356001600160401b0381111561226857600080fd5b611df988828901611d39565b60006020828403121561228657600080fd5b813561073781611acb565b600080604083850312156122a457600080fd5b82356122af81611acb565b915060208301356001600160401b038111156122ca57600080fd5b8301601f810185136122db57600080fd5b611ece85823560208401611cdc565b6000806000606084860312156122ff57600080fd5b833561230a81611acb565b95602085013595506040909401359392505050565b600181811c9082168061233357607f821691505b60208210810361235357634e487b7160e01b600052602260045260246000fd5b50919050565b6020808252602e908201527f455243313135353a2063616c6c6572206973206e6f7420746f6b656e206f776e60408201526d195c881bdc88185c1c1c9bdd995960921b606082015260800190565b634e487b7160e01b600052603260045260246000fd5b634e487b7160e01b600052601160045260246000fd5b6000600182016123e5576123e56123bd565b5060010190565b600060208083850312156123ff57600080fd5b82516001600160401b0381111561241557600080fd5b8301601f8101851361242657600080fd5b805161243181611c48565b6040805161243f8382611c1c565b83815260069390931b840185019285810192508884111561245f57600080fd5b938501935b838510156124ab5781858a03121561247c5760008081fd5b815161248781611bf7565b855161249281611acb565b8152858701518782015283529381019391850191612464565b98975050505050505050565b6020808252603f908201527f446572697661746976654f7074696f6e3a2063616c6c6572206973206e6f742060408201527f746f6b656e206f776e6572206f7220617070726f76656420666f7220616c6c00606082015260800190565b60208082526028908201527f455243313135353a2069647320616e6420616d6f756e7473206c656e677468206040820152670dad2e6dac2e8c6d60c31b606082015260800190565b60208082526025908201527f455243313135353a207472616e7366657220746f20746865207a65726f206164604082015264647265737360d81b606082015260800190565b6020808252602a908201527f455243313135353a20696e73756666696369656e742062616c616e636520666f60408201526939103a3930b739b332b960b11b606082015260800190565b8082018082111561037d5761037d6123bd565b6040815260006126116040830185611ed8565b82810360208401526107948185611ed8565b6020808252825182820181905260009190848201906040850190845b818110156126645783516001600160a01b03168352928401929184019160010161263f565b50909695505050505050565b60208082526021908201527f455243313135353a206d696e7420746f20746865207a65726f206164647265736040820152607360f81b606082015260800190565b60208082526023908201527f455243313135353a206275726e2066726f6d20746865207a65726f206164647260408201526265737360e81b606082015260800190565b60208082526024908201527f455243313135353a206275726e20616d6f756e7420657863656564732062616c604082015263616e636560e01b606082015260800190565b6020808252602b908201527f496e697469616c697a61626c653a20636f6e7472616374206973206e6f74206960408201526a6e697469616c697a696e6760a81b606082015260800190565b6001600160a01b0386811682528516602082015260a0604082018190526000906127af90830186611ed8565b82810360608401526127c18186611ed8565b905082810360808401526124ab8185611b88565b6000602082840312156127e757600080fd5b815161073781611b3c565b600060033d111561280b5760046000803e5060005160e01c5b90565b600060443d101561281c5790565b6040516003193d81016004833e81513d6001600160401b03816024840111818411171561284b57505050505090565b82850191508151818111156128635750505050505090565b843d870101602082850101111561287d5750505050505090565b61288c60208286010187611c1c565b509095945050505050565b60208082526028908201527f455243313135353a204552433131353552656365697665722072656a656374656040820152676420746f6b656e7360c01b606082015260800190565b6001600160a01b03868116825285166020820152604081018490526060810183905260a06080820181905260009061291990830184611b88565b979650505050505050565b601f821115610bc357600081815260208120601f850160051c8101602086101561294b5750805b601f850160051c820191505b81811015610df357828155600101612957565b81516001600160401b0381111561298357612983611be1565b61299781612991845461231f565b84612924565b602080601f8311600181146129cc57600084156129b45750858301515b600019600386901b1c1916600185901b178555610df3565b600085815260208120601f198616915b828110156129fb578886015182559484019460019091019084016129dc565b5085821015612a195787850151600019600388901b60f8161c191681555b5050505050600190811b0190555056fea26469706673582212208c7f9c7d09fca527e5f48bb1a21b412da327b4f2cdec83b25a9e608de87fe4ce64736f6c63430008110033",
  "linkReferences": {},
  "deployedLinkReferences": {}
}