{
  "_format": "hh-sol-artifact-1",
  "contractName": "UtilityOption",
  "sourceName": "contracts/option/utility/UtilityOption.sol",
  "abi": [
    {
      "anonymous": false,
      "inputs": [
        {
          "indexed": true,
          "internalType": "address",
          "name": "account",
          "type": "address"
        },
        {
          "indexed": true,
          "internalType": "address",
          "name": "operator",
          "type": "address"
        },
        {
          "indexed": false,
          "internalType": "bool",
          "name": "approved",
          "type": "bool"
        }
      ],
      "name": "ApprovalForAll",
      "type": "event"
    },
    {
      "anonymous": false,
      "inputs": [
        {
          "indexed": false,
          "internalType": "uint8",
          "name": "version",
          "type": "uint8"
        }
      ],
      "name": "Initialized",
      "type": "event"
    },
    {
      "anonymous": false,
      "inputs": [
        {
          "indexed": true,
          "internalType": "uint256",
          "name": "tokenId",
          "type": "uint256"
        },
        {
          "components": [
            {
              "internalType": "address",
              "name": "collection",
              "type": "address"
            },
            {
              "internalType": "uint256",
              "name": "id",
              "type": "uint256"
            }
          ],
          "indexed": false,
          "internalType": "struct LibToken.Token",
          "name": "issuer",
          "type": "tuple"
        }
      ],
      "name": "IssuerSet",
      "type": "event"
    },
    {
      "anonymous": false,
      "inputs": [
        {
          "indexed": true,
          "internalType": "address",
          "name": "previousOwner",
          "type": "address"
        },
        {
          "indexed": true,
          "internalType": "address",
          "name": "newOwner",
          "type": "address"
        }
      ],
      "name": "OwnershipTransferred",
      "type": "event"
    },
    {
      "anonymous": false,
      "inputs": [
        {
          "indexed": true,
          "internalType": "address",
          "name": "operator",
          "type": "address"
        },
        {
          "indexed": true,
          "internalType": "address",
          "name": "from",
          "type": "address"
        },
        {
          "indexed": true,
          "internalType": "address",
          "name": "to",
          "type": "address"
        },
        {
          "indexed": false,
          "internalType": "uint256[]",
          "name": "ids",
          "type": "uint256[]"
        },
        {
          "indexed": false,
          "internalType": "uint256[]",
          "name": "values",
          "type": "uint256[]"
        }
      ],
      "name": "TransferBatch",
      "type": "event"
    },
    {
      "anonymous": false,
      "inputs": [
        {
          "indexed": true,
          "internalType": "address",
          "name": "operator",
          "type": "address"
        },
        {
          "indexed": true,
          "internalType": "address",
          "name": "from",
          "type": "address"
        },
        {
          "indexed": true,
          "internalType": "address",
          "name": "to",
          "type": "address"
        },
        {
          "indexed": false,
          "internalType": "uint256",
          "name": "id",
          "type": "uint256"
        },
        {
          "indexed": false,
          "internalType": "uint256",
          "name": "value",
          "type": "uint256"
        }
      ],
      "name": "TransferSingle",
      "type": "event"
    },
    {
      "anonymous": false,
      "inputs": [
        {
          "indexed": false,
          "internalType": "string",
          "name": "value",
          "type": "string"
        },
        {
          "indexed": true,
          "internalType": "uint256",
          "name": "id",
          "type": "uint256"
        }
      ],
      "name": "URI",
      "type": "event"
    },
    {
      "inputs": [
        {
          "internalType": "address",
          "name": "account",
          "type": "address"
        },
        {
          "internalType": "uint256",
          "name": "id",
          "type": "uint256"
        }
      ],
      "name": "balanceOf",
      "outputs": [
        {
          "internalType": "uint256",
          "name": "",
          "type": "uint256"
        }
      ],
      "stateMutability": "view",
      "type": "function"
    },
    {
      "inputs": [
        {
          "internalType": "address[]",
          "name": "accounts",
          "type": "address[]"
        },
        {
          "internalType": "uint256[]",
          "name": "ids",
          "type": "uint256[]"
        }
      ],
      "name": "balanceOfBatch",
      "outputs": [
        {
          "internalType": "uint256[]",
          "name": "",
          "type": "uint256[]"
        }
      ],
      "stateMutability": "view",
      "type": "function"
    },
    {
      "inputs": [
        {
          "internalType": "address",
          "name": "from",
          "type": "address"
        },
        {
          "internalType": "uint256",
          "name": "id",
          "type": "uint256"
        },
        {
          "internalType": "uint256",
          "name": "amount",
          "type": "uint256"
        }
      ],
      "name": "burn",
      "outputs": [],
      "stateMutability": "nonpayable",
      "type": "function"
    },
    {
      "inputs": [
        {
          "internalType": "address",
          "name": "from",
          "type": "address"
        },
        {
          "internalType": "uint256[]",
          "name": "ids",
          "type": "uint256[]"
        },
        {
          "internalType": "uint256[]",
          "name": "amounts",
          "type": "uint256[]"
        }
      ],
      "name": "burnBatch",
      "outputs": [],
      "stateMutability": "nonpayable",
      "type": "function"
    },
    {
      "inputs": [
        {
          "internalType": "address",
          "name": "owner",
          "type": "address"
        },
        {
          "internalType": "string",
          "name": "uri",
          "type": "string"
        }
      ],
      "name": "initialize",
      "outputs": [],
      "stateMutability": "nonpayable",
      "type": "function"
    },
    {
      "inputs": [
        {
          "internalType": "address",
          "name": "account",
          "type": "address"
        },
        {
          "internalType": "address",
          "name": "operator",
          "type": "address"
        }
      ],
      "name": "isApprovedForAll",
      "outputs": [
        {
          "internalType": "bool",
          "name": "",
          "type": "bool"
        }
      ],
      "stateMutability": "view",
      "type": "function"
    },
    {
      "inputs": [
        {
          "internalType": "uint256",
          "name": "tokenId",
          "type": "uint256"
        }
      ],
      "name": "issuerOf",
      "outputs": [
        {
          "components": [
            {
              "internalType": "address",
              "name": "collection",
              "type": "address"
            },
            {
              "internalType": "uint256",
              "name": "id",
              "type": "uint256"
            }
          ],
          "internalType": "struct LibToken.Token",
          "name": "",
          "type": "tuple"
        }
      ],
      "stateMutability": "view",
      "type": "function"
    },
    {
      "inputs": [
        {
          "internalType": "address",
          "name": "to",
          "type": "address"
        },
        {
          "internalType": "uint256",
          "name": "amount",
          "type": "uint256"
        },
        {
          "components": [
            {
              "internalType": "address",
              "name": "collection",
              "type": "address"
            },
            {
              "internalType": "uint256",
              "name": "id",
              "type": "uint256"
            }
          ],
          "internalType": "struct LibToken.Token",
          "name": "issuer",
          "type": "tuple"
        }
      ],
      "name": "mint",
      "outputs": [
        {
          "internalType": "uint256",
          "name": "",
          "type": "uint256"
        }
      ],
      "stateMutability": "nonpayable",
      "type": "function"
    },
    {
      "inputs": [
        {
          "internalType": "address",
          "name": "to",
          "type": "address"
        },
        {
          "internalType": "uint256[]",
          "name": "amounts",
          "type": "uint256[]"
        },
        {
          "components": [
            {
              "internalType": "address",
              "name": "collection",
              "type": "address"
            },
            {
              "internalType": "uint256",
              "name": "id",
              "type": "uint256"
            }
          ],
          "internalType": "struct LibToken.Token[]",
          "name": "issuers",
          "type": "tuple[]"
        }
      ],
      "name": "mintBatch",
      "outputs": [
        {
          "internalType": "uint256[]",
          "name": "",
          "type": "uint256[]"
        }
      ],
      "stateMutability": "nonpayable",
      "type": "function"
    },
    {
      "inputs": [],
      "name": "owner",
      "outputs": [
        {
          "internalType": "address",
          "name": "",
          "type": "address"
        }
      ],
      "stateMutability": "view",
      "type": "function"
    },
    {
      "inputs": [],
      "name": "renounceOwnership",
      "outputs": [],
      "stateMutability": "nonpayable",
      "type": "function"
    },
    {
      "inputs": [
        {
          "internalType": "uint256",
          "name": "tokenId",
          "type": "uint256"
        }
      ],
      "name": "royaltiesFrom",
      "outputs": [
        {
          "components": [
            {
              "internalType": "address payable",
              "name": "receiver",
              "type": "address"
            },
            {
              "internalType": "uint256",
              "name": "fraction",
              "type": "uint256"
            }
          ],
          "internalType": "struct LibRoyalty.Royalty[]",
          "name": "royalties",
          "type": "tuple[]"
        }
      ],
      "stateMutability": "view",
      "type": "function"
    },
    {
      "inputs": [
        {
          "internalType": "address",
          "name": "from",
          "type": "address"
        },
        {
          "internalType": "address",
          "name": "to",
          "type": "address"
        },
        {
          "internalType": "uint256[]",
          "name": "ids",
          "type": "uint256[]"
        },
        {
          "internalType": "uint256[]",
          "name": "amounts",
          "type": "uint256[]"
        },
        {
          "internalType": "bytes",
          "name": "data",
          "type": "bytes"
        }
      ],
      "name": "safeBatchTransferFrom",
      "outputs": [],
      "stateMutability": "nonpayable",
      "type": "function"
    },
    {
      "inputs": [
        {
          "internalType": "address",
          "name": "from",
          "type": "address"
        },
        {
          "internalType": "address",
          "name": "to",
          "type": "address"
        },
        {
          "internalType": "uint256",
          "name": "id",
          "type": "uint256"
        },
        {
          "internalType": "uint256",
          "name": "amount",
          "type": "uint256"
        },
        {
          "internalType": "bytes",
          "name": "data",
          "type": "bytes"
        }
      ],
      "name": "safeTransferFrom",
      "outputs": [],
      "stateMutability": "nonpayable",
      "type": "function"
    },
    {
      "inputs": [
        {
          "internalType": "address",
          "name": "operator",
          "type": "address"
        },
        {
          "internalType": "bool",
          "name": "approved",
          "type": "bool"
        }
      ],
      "name": "setApprovalForAll",
      "outputs": [],
      "stateMutability": "nonpayable",
      "type": "function"
    },
    {
      "inputs": [
        {
          "internalType": "bytes4",
          "name": "interfaceId",
          "type": "bytes4"
        }
      ],
      "name": "supportsInterface",
      "outputs": [
        {
          "internalType": "bool",
          "name": "",
          "type": "bool"
        }
      ],
      "stateMutability": "view",
      "type": "function"
    },
    {
      "inputs": [
        {
          "internalType": "address",
          "name": "newOwner",
          "type": "address"
        }
      ],
      "name": "transferOwnership",
      "outputs": [],
      "stateMutability": "nonpayable",
      "type": "function"
    },
    {
      "inputs": [
        {
          "internalType": "uint256",
          "name": "",
          "type": "uint256"
        }
      ],
      "name": "uri",
      "outputs": [
        {
          "internalType": "string",
          "name": "",
          "type": "string"
        }
      ],
      "stateMutability": "view",
      "type": "function"
    },
    {
      "inputs": [],
      "name": "version",
      "outputs": [
        {
          "internalType": "uint256",
          "name": "",
          "type": "uint256"
        }
      ],
      "stateMutability": "pure",
      "type": "function"
    }
  ],
  "bytecode": "0x608060405234801561001057600080fd5b50612836806100206000396000f3fe608060405234801561001057600080fd5b50600436106101205760003560e01c80638da5cb5b116100ad578063e985e9c511610071578063e985e9c514610290578063f242432a146102cc578063f2fde38b146102df578063f399e22e146102f2578063f5298aca1461030557600080fd5b80638da5cb5b146102055780639280064c146102205780639c0553f614610233578063a22cb46514610246578063a4e2ee111461025957600080fd5b80634e1273f4116100f45780634e1273f4146101a35780634e6e9a04146101c357806354fd4d50146101e35780636b20c454146101ea578063715018a6146101fd57600080fd5b8062fdd58e1461012557806301ffc9a71461014b5780630e89341c1461016e5780632eb2c2d61461018e575b600080fd5b610138610133366004611967565b610318565b6040519081526020015b60405180910390f35b61015e6101593660046119a9565b6103b3565b6040519015158152602001610142565b61018161017c3660046119c6565b6103be565b6040516101429190611a25565b6101a161019c366004611bb0565b610452565b005b6101b66101b1366004611c5d565b61049e565b6040516101429190611d64565b6101d66101d13660046119c6565b6105c7565b6040516101429190611d77565b6002610138565b6101a16101f8366004611dcf565b6106cd565b6101a1610717565b6065546040516001600160a01b039091168152602001610142565b61013861022e366004611e9c565b61072b565b6101b6610241366004611edb565b61077d565b6101a1610254366004611fbb565b6108ea565b61026c6102673660046119c6565b6108f9565b6040805182516001600160a01b031681526020928301519281019290925201610142565b61015e61029e366004611ff9565b6001600160a01b03918216600090815260986020908152604080832093909416825291909152205460ff1690565b6101a16102da366004612027565b610940565b6101a16102ed36600461208f565b610985565b6101a16103003660046120ac565b6109fe565b6101a1610313366004612105565b610b23565b60006001600160a01b0383166103885760405162461bcd60e51b815260206004820152602a60248201527f455243313135353a2061646472657373207a65726f206973206e6f742061207660448201526930b634b21037bbb732b960b11b60648201526084015b60405180910390fd5b5060008181526097602090815260408083206001600160a01b03861684529091529020545b92915050565b60006103ad82610b67565b6060609980546103cd9061213a565b80601f01602080910402602001604051908101604052809291908181526020018280546103f99061213a565b80156104465780601f1061041b57610100808354040283529160200191610446565b820191906000526020600020905b81548152906001019060200180831161042957829003601f168201915b50505050509050919050565b6001600160a01b03851633148061046e575061046e853361029e565b61048a5760405162461bcd60e51b815260040161037f90612174565b6104978585858585610bb7565b5050505050565b606081518351146105035760405162461bcd60e51b815260206004820152602960248201527f455243313135353a206163636f756e747320616e6420696473206c656e677468604482015268040dad2e6dac2e8c6d60bb1b606482015260840161037f565b600083516001600160401b0381111561051e5761051e611a38565b604051908082528060200260200182016040528015610547578160200160208202803683370190505b50905060005b84518110156105bf5761059285828151811061056b5761056b6121c2565b6020026020010151858381518110610585576105856121c2565b6020026020010151610318565b8282815181106105a4576105a46121c2565b60209081029190910101526105b8816121ee565b905061054d565b509392505050565b606060006105d4836108f9565b80519091506001600160a01b031661064b5760405162461bcd60e51b815260206004820152603460248201527f5574696c6974794f7074696f6e3a2069737375657220636f6c6c656374696f6e60448201527320697320746865207a65726f206164647265737360601b606482015260840161037f565b805160208201516040516333e88d5f60e11b81526001600160a01b03909216916367d11abe916106819160040190815260200190565b600060405180830381865afa15801561069e573d6000803e3d6000fd5b505050506040513d6000823e601f3d908101601f191682016040526106c69190810190612207565b9392505050565b826001600160a01b0381163314806106ea57506106ea813361029e565b6107065760405162461bcd60e51b815260040161037f906122d2565b610711848484610d56565b50505050565b61071f610ee3565b6107296000610f3d565b565b6000610735610ee3565b600061074060fb5490565b905061074c8184610f8f565b610767858286604051806020016040528060008152506110ee565b61077560fb80546001019055565b949350505050565b6060610787610ee3565b81518351146107fe5760405162461bcd60e51b815260206004820152603d60248201527f5574696c6974794f7074696f6e3a20616d6f756e747320616e6420697373756560448201527f7273206d757374206265206f66207468652073616d65206c656e677468000000606482015260840161037f565b600083516001600160401b0381111561081957610819611a38565b604051908082528060200260200182016040528015610842578160200160208202803683370190505b50905060005b84518110156108ce5760fb54828281518110610866576108666121c2565b6020026020010181815250506108ae828281518110610887576108876121c2565b60200260200101518583815181106108a1576108a16121c2565b6020026020010151610f8f565b6108bc60fb80546001019055565b806108c6816121ee565b915050610848565b50610775858286604051806020016040528060008152506111ca565b6108f5338383611316565b5050565b604080518082019091526000808252602082015250600090815260c96020908152604091829020825180840190935280546001600160a01b03168352600101549082015290565b6001600160a01b03851633148061095c575061095c853361029e565b6109785760405162461bcd60e51b815260040161037f90612174565b61049785858585856113f6565b61098d610ee3565b6001600160a01b0381166109f25760405162461bcd60e51b815260206004820152602660248201527f4f776e61626c653a206e6577206f776e657220697320746865207a65726f206160448201526564647265737360d01b606482015260840161037f565b6109fb81610f3d565b50565b600054610100900460ff1615808015610a1e5750600054600160ff909116105b80610a385750303b158015610a38575060005460ff166001145b610a9b5760405162461bcd60e51b815260206004820152602e60248201527f496e697469616c697a61626c653a20636f6e747261637420697320616c72656160448201526d191e481a5b9a5d1a585b1a5e995960921b606482015260840161037f565b6000805460ff191660011790558015610abe576000805461ff0019166101001790555b610ac6611524565b610acf82611553565b610ad883610985565b8015610b1e576000805461ff0019169055604051600181527f7f26b83ff96e1f2b6a682f133852f6798a09c465da95921460cefb38474024989060200160405180910390a15b505050565b826001600160a01b038116331480610b405750610b40813361029e565b610b5c5760405162461bcd60e51b815260040161037f906122d2565b610711848484611583565b60006001600160e01b03198216636cdb3d1360e11b1480610b9857506001600160e01b031982166303a24d0760e21b145b806103ad57506301ffc9a760e01b6001600160e01b03198316146103ad565b8151835114610bd85760405162461bcd60e51b815260040161037f9061232f565b6001600160a01b038416610bfe5760405162461bcd60e51b815260040161037f90612377565b3360005b8451811015610ce8576000858281518110610c1f57610c1f6121c2565b602002602001015190506000858381518110610c3d57610c3d6121c2565b60209081029190910181015160008481526097835260408082206001600160a01b038e168352909352919091205490915081811015610c8e5760405162461bcd60e51b815260040161037f906123bc565b60008381526097602090815260408083206001600160a01b038e8116855292528083208585039055908b16825281208054849290610ccd908490612406565b9250508190555050505080610ce1906121ee565b9050610c02565b50846001600160a01b0316866001600160a01b0316826001600160a01b03167f4a39dc06d4c0dbc64b70af90fd698a233a518aa5d07e595d983b8c0526c8f7fb8787604051610d38929190612419565b60405180910390a4610d4e81878787878761168a565b505050505050565b6001600160a01b038316610d7c5760405162461bcd60e51b815260040161037f90612447565b8051825114610d9d5760405162461bcd60e51b815260040161037f9061232f565b604080516020810190915260009081905233905b8351811015610e76576000848281518110610dce57610dce6121c2565b602002602001015190506000848381518110610dec57610dec6121c2565b60209081029190910181015160008481526097835260408082206001600160a01b038c168352909352919091205490915081811015610e3d5760405162461bcd60e51b815260040161037f9061248a565b60009283526097602090815260408085206001600160a01b038b1686529091529092209103905580610e6e816121ee565b915050610db1565b5060006001600160a01b0316846001600160a01b0316826001600160a01b03167f4a39dc06d4c0dbc64b70af90fd698a233a518aa5d07e595d983b8c0526c8f7fb8686604051610ec7929190612419565b60405180910390a4604080516020810190915260009052610711565b6065546001600160a01b031633146107295760405162461bcd60e51b815260206004820181905260248201527f4f776e61626c653a2063616c6c6572206973206e6f7420746865206f776e6572604482015260640161037f565b606580546001600160a01b038381166001600160a01b0319831681179093556040519116919082907f8be0079c531659141344cd1fd0a4f28419497f9722a3daafe3b4186f6b6457e090600090a35050565b80516001600160a01b0316610ffe5760405162461bcd60e51b815260206004820152602f60248201527f4973737561626c653a2069737375657220636f6c6c656374696f6e206973207460448201526e6865207a65726f206164647265737360881b606482015260840161037f565b600082815260c960205260409020546001600160a01b0316156110715760405162461bcd60e51b815260206004820152602560248201527f4973737561626c653a206973737565722068617320616c7265616479206265656044820152641b881cd95d60da1b606482015260840161037f565b600082815260c96020908152604091829020835181546001600160a01b0319166001600160a01b0390911690811782558483018051600190930192909255835190815290519181019190915283917fcd64576751caf271c6471098eb40940e8598566552076e0a9b9bd9af9cb29351910160405180910390a25050565b6001600160a01b0384166111145760405162461bcd60e51b815260040161037f906124ce565b336000611120856117e5565b9050600061112d856117e5565b905060008681526097602090815260408083206001600160a01b038b16845290915281208054879290611161908490612406565b909155505060408051878152602081018790526001600160a01b03808a1692600092918716917fc3d58168c5ae7397731d063d5bbf3d657854427343f4c083240f7aacaa2d0f62910160405180910390a46111c183600089898989611830565b50505050505050565b6001600160a01b0384166111f05760405162461bcd60e51b815260040161037f906124ce565b81518351146112115760405162461bcd60e51b815260040161037f9061232f565b3360005b84518110156112ae57838181518110611230576112306121c2565b60200260200101516097600087848151811061124e5761124e6121c2565b602002602001015181526020019081526020016000206000886001600160a01b03166001600160a01b0316815260200190815260200160002060008282546112969190612406565b909155508190506112a6816121ee565b915050611215565b50846001600160a01b031660006001600160a01b0316826001600160a01b03167f4a39dc06d4c0dbc64b70af90fd698a233a518aa5d07e595d983b8c0526c8f7fb87876040516112ff929190612419565b60405180910390a46104978160008787878761168a565b816001600160a01b0316836001600160a01b0316036113895760405162461bcd60e51b815260206004820152602960248201527f455243313135353a2073657474696e6720617070726f76616c20737461747573604482015268103337b91039b2b63360b91b606482015260840161037f565b6001600160a01b03838116600081815260986020908152604080832094871680845294825291829020805460ff191686151590811790915591519182527f17307eab39ab6107e8899845ad3d59bd9653f200f220920489ca2b5937696c31910160405180910390a3505050565b6001600160a01b03841661141c5760405162461bcd60e51b815260040161037f90612377565b336000611428856117e5565b90506000611435856117e5565b905060008681526097602090815260408083206001600160a01b038c1684529091529020548581101561147a5760405162461bcd60e51b815260040161037f906123bc565b60008781526097602090815260408083206001600160a01b038d8116855292528083208985039055908a168252812080548892906114b9908490612406565b909155505060408051888152602081018890526001600160a01b03808b16928c821692918816917fc3d58168c5ae7397731d063d5bbf3d657854427343f4c083240f7aacaa2d0f62910160405180910390a4611519848a8a8a8a8a611830565b505050505050505050565b600054610100900460ff1661154b5760405162461bcd60e51b815260040161037f9061250f565b6107296118eb565b600054610100900460ff1661157a5760405162461bcd60e51b815260040161037f9061250f565b6109fb8161191b565b6001600160a01b0383166115a95760405162461bcd60e51b815260040161037f90612447565b3360006115b5846117e5565b905060006115c2846117e5565b6040805160208082018352600091829052888252609781528282206001600160a01b038b16835290522054909150848110156116105760405162461bcd60e51b815260040161037f9061248a565b60008681526097602090815260408083206001600160a01b038b81168086529184528285208a8703905582518b81529384018a90529092908816917fc3d58168c5ae7397731d063d5bbf3d657854427343f4c083240f7aacaa2d0f62910160405180910390a46040805160208101909152600090526111c1565b6001600160a01b0384163b15610d4e5760405163bc197c8160e01b81526001600160a01b0385169063bc197c81906116ce908990899088908890889060040161255a565b6020604051808303816000875af1925050508015611709575060408051601f3d908101601f19168201909252611706918101906125ac565b60015b6117b5576117156125c9565b806308c379a00361174e57506117296125e5565b806117345750611750565b8060405162461bcd60e51b815260040161037f9190611a25565b505b60405162461bcd60e51b815260206004820152603460248201527f455243313135353a207472616e7366657220746f206e6f6e2d455243313135356044820152732932b1b2b4bb32b91034b6b83632b6b2b73a32b960611b606482015260840161037f565b6001600160e01b0319811663bc197c8160e01b146111c15760405162461bcd60e51b815260040161037f9061266e565b6040805160018082528183019092526060916000919060208083019080368337019050509050828160008151811061181f5761181f6121c2565b602090810291909101015292915050565b6001600160a01b0384163b15610d4e5760405163f23a6e6160e01b81526001600160a01b0385169063f23a6e619061187490899089908890889088906004016126b6565b6020604051808303816000875af19250505080156118af575060408051601f3d908101601f191682019092526118ac918101906125ac565b60015b6118bb576117156125c9565b6001600160e01b0319811663f23a6e6160e01b146111c15760405162461bcd60e51b815260040161037f9061266e565b600054610100900460ff166119125760405162461bcd60e51b815260040161037f9061250f565b61072933610f3d565b600054610100900460ff166119425760405162461bcd60e51b815260040161037f9061250f565b6109fb8160996108f58282612741565b6001600160a01b03811681146109fb57600080fd5b6000806040838503121561197a57600080fd5b823561198581611952565b946020939093013593505050565b6001600160e01b0319811681146109fb57600080fd5b6000602082840312156119bb57600080fd5b81356106c681611993565b6000602082840312156119d857600080fd5b5035919050565b6000815180845260005b81811015611a05576020818501810151868301820152016119e9565b506000602082860101526020601f19601f83011685010191505092915050565b6020815260006106c660208301846119df565b634e487b7160e01b600052604160045260246000fd5b604081018181106001600160401b0382111715611a6d57611a6d611a38565b60405250565b601f8201601f191681016001600160401b0381118282101715611a9857611a98611a38565b6040525050565b60006001600160401b03821115611ab857611ab8611a38565b5060051b60200190565b600082601f830112611ad357600080fd5b81356020611ae082611a9f565b604051611aed8282611a73565b83815260059390931b8501820192828101915086841115611b0d57600080fd5b8286015b84811015611b285780358352918301918301611b11565b509695505050505050565b60006001600160401b03831115611b4c57611b4c611a38565b604051611b63601f8501601f191660200182611a73565b809150838152848484011115611b7857600080fd5b83836020830137600060208583010152509392505050565b600082601f830112611ba157600080fd5b6106c683833560208501611b33565b600080600080600060a08688031215611bc857600080fd5b8535611bd381611952565b94506020860135611be381611952565b935060408601356001600160401b0380821115611bff57600080fd5b611c0b89838a01611ac2565b94506060880135915080821115611c2157600080fd5b611c2d89838a01611ac2565b93506080880135915080821115611c4357600080fd5b50611c5088828901611b90565b9150509295509295909350565b60008060408385031215611c7057600080fd5b82356001600160401b0380821115611c8757600080fd5b818501915085601f830112611c9b57600080fd5b81356020611ca882611a9f565b604051611cb58282611a73565b83815260059390931b8501820192828101915089841115611cd557600080fd5b948201945b83861015611cfc578535611ced81611952565b82529482019490820190611cda565b96505086013592505080821115611d1257600080fd5b50611d1f85828601611ac2565b9150509250929050565b600081518084526020808501945080840160005b83811015611d5957815187529582019590820190600101611d3d565b509495945050505050565b6020815260006106c66020830184611d29565b602080825282518282018190526000919060409081850190868401855b82811015611dc257815180516001600160a01b03168552860151868501529284019290850190600101611d94565b5091979650505050505050565b600080600060608486031215611de457600080fd5b8335611def81611952565b925060208401356001600160401b0380821115611e0b57600080fd5b611e1787838801611ac2565b93506040860135915080821115611e2d57600080fd5b50611e3a86828701611ac2565b9150509250925092565b600060408284031215611e5657600080fd5b604051604081018181106001600160401b0382111715611e7857611e78611a38565b6040529050808235611e8981611952565b8152602092830135920191909152919050565b600080600060808486031215611eb157600080fd5b8335611ebc81611952565b925060208401359150611ed28560408601611e44565b90509250925092565b600080600060608486031215611ef057600080fd5b8335611efb81611952565b92506020848101356001600160401b0380821115611f1857600080fd5b611f2488838901611ac2565b9450604091508187013581811115611f3b57600080fd5b87019050601f81018813611f4e57600080fd5b8035611f5981611a9f565b8351611f658282611a73565b82815260069290921b830185019185810191508a831115611f8557600080fd5b928501925b82841015611fab57611f9c8b85611e44565b82529284019290850190611f8a565b8096505050505050509250925092565b60008060408385031215611fce57600080fd5b8235611fd981611952565b915060208301358015158114611fee57600080fd5b809150509250929050565b6000806040838503121561200c57600080fd5b823561201781611952565b91506020830135611fee81611952565b600080600080600060a0868803121561203f57600080fd5b853561204a81611952565b9450602086013561205a81611952565b9350604086013592506060860135915060808601356001600160401b0381111561208357600080fd5b611c5088828901611b90565b6000602082840312156120a157600080fd5b81356106c681611952565b600080604083850312156120bf57600080fd5b82356120ca81611952565b915060208301356001600160401b038111156120e557600080fd5b8301601f810185136120f657600080fd5b611d1f85823560208401611b33565b60008060006060848603121561211a57600080fd5b833561212581611952565b95602085013595506040909401359392505050565b600181811c9082168061214e57607f821691505b60208210810361216e57634e487b7160e01b600052602260045260246000fd5b50919050565b6020808252602e908201527f455243313135353a2063616c6c6572206973206e6f7420746f6b656e206f776e60408201526d195c881bdc88185c1c1c9bdd995960921b606082015260800190565b634e487b7160e01b600052603260045260246000fd5b634e487b7160e01b600052601160045260246000fd5b600060018201612200576122006121d8565b5060010190565b6000602080838503121561221a57600080fd5b82516001600160401b0381111561223057600080fd5b8301601f8101851361224157600080fd5b805161224c81611a9f565b6040805161225a8382611a73565b83815260069390931b840185019285810192508884111561227a57600080fd5b938501935b838510156122c65781858a0312156122975760008081fd5b81516122a281611a4e565b85516122ad81611952565b815285870151878201528352938101939185019161227f565b98975050505050505050565b6020808252603c908201527f5574696c6974794f7074696f6e3a2063616c6c6572206973206e6f7420746f6b60408201527f656e206f776e6572206f7220617070726f76656420666f7220616c6c00000000606082015260800190565b60208082526028908201527f455243313135353a2069647320616e6420616d6f756e7473206c656e677468206040820152670dad2e6dac2e8c6d60c31b606082015260800190565b60208082526025908201527f455243313135353a207472616e7366657220746f20746865207a65726f206164604082015264647265737360d81b606082015260800190565b6020808252602a908201527f455243313135353a20696e73756666696369656e742062616c616e636520666f60408201526939103a3930b739b332b960b11b606082015260800190565b808201808211156103ad576103ad6121d8565b60408152600061242c6040830185611d29565b828103602084015261243e8185611d29565b95945050505050565b60208082526023908201527f455243313135353a206275726e2066726f6d20746865207a65726f206164647260408201526265737360e81b606082015260800190565b60208082526024908201527f455243313135353a206275726e20616d6f756e7420657863656564732062616c604082015263616e636560e01b606082015260800190565b60208082526021908201527f455243313135353a206d696e7420746f20746865207a65726f206164647265736040820152607360f81b606082015260800190565b6020808252602b908201527f496e697469616c697a61626c653a20636f6e7472616374206973206e6f74206960408201526a6e697469616c697a696e6760a81b606082015260800190565b6001600160a01b0386811682528516602082015260a06040820181905260009061258690830186611d29565b82810360608401526125988186611d29565b905082810360808401526122c681856119df565b6000602082840312156125be57600080fd5b81516106c681611993565b600060033d11156125e25760046000803e5060005160e01c5b90565b600060443d10156125f35790565b6040516003193d81016004833e81513d6001600160401b03816024840111818411171561262257505050505090565b828501915081518181111561263a5750505050505090565b843d87010160208285010111156126545750505050505090565b61266360208286010187611a73565b509095945050505050565b60208082526028908201527f455243313135353a204552433131353552656365697665722072656a656374656040820152676420746f6b656e7360c01b606082015260800190565b6001600160a01b03868116825285166020820152604081018490526060810183905260a0608082018190526000906126f0908301846119df565b979650505050505050565b601f821115610b1e57600081815260208120601f850160051c810160208610156127225750805b601f850160051c820191505b81811015610d4e5782815560010161272e565b81516001600160401b0381111561275a5761275a611a38565b61276e81612768845461213a565b846126fb565b602080601f8311600181146127a3576000841561278b5750858301515b600019600386901b1c1916600185901b178555610d4e565b600085815260208120601f198616915b828110156127d2578886015182559484019460019091019084016127b3565b50858210156127f05787850151600019600388901b60f8161c191681555b5050505050600190811b0190555056fea26469706673582212209343b5136d071fab73231b6c40b7f4c0f1f5902c007e6ce679eb3f4627f33f2664736f6c63430008110033",
  "linkReferences": {},
  "deployedLinkReferences": {}
}